:020000040800F2
:1000000000280020F1000008ED000008ED000008C5
:10001000ED000008ED000008ED0000080000000001
:10002000000000000000000000000000ED000008DB
:10003000ED00000800000000ED0000088117000836
:1000400000000000000000000000000000000000B0
:1000500000000000000000000000000000000000A0
:100060000000000000000000000000000000000090
:100070000000000000000000000000000000000080
:100080000000000000000000000000000000000070
:10009000ED0000080000000000000000F517000857
:1000A0000000000000000000000000000000000050
:1000B000A917000800000000000000000000000078
:1000C0000000000000000000000000000000000030
:1000D00000000000911700089D17000800000000B4
:1000E000000000000000000000000000FEE700002B
:1000F00008B50A4A0A4B0B498B4207D300210A4B29
:100100000A4A934207D301F087FCFEE752F8040B3A
:1001100043F8040BF0E743F8041BF2E71C2F000838
:1001200000000020C4030020C40300207806002043
:100130000848094BDA68D20708D50138FAD2D868DE
:1001400000F01400B0FA80F0400901E00028F6D178
:10015000704700BFC0C62D0000200240034B9868C6
:10016000C0F3003080F00100704700BF000C014078
:1001700003681A6892060CD559688388C2880133CF
:10018000DBB292B29A4204D0828892B202441172D7
:10019000838070470268054B1068000603D4013B5A
:1001A000FAD2516001E0002BFBD17047400D0300F3
:1001B00038B505464C1E14F8011F01B938BD284654
:1001C000FFF7E8FFF7E77FB5054600240A26B1FBF5
:1001D000F6F0234606FB101210336B44303203F85E
:1001E0000C2C0B460134092B0146E4B2EFD80CB9B4
:1001F00004B070BD013CE4B204F110036B44284626
:1002000013F80C1CFFF7C6FFF1E738B504460D469E
:100210002C21FFF7BFFF29462046BDE83840FFF7F5
:10022000D2BF38B50C462C210546FFF7B3FF002C92
:1002300004DA2D212846FFF7ADFF64422146284607
:10024000BDE83840FFF7BFBF10B50446FFF7B0FF69
:100250002046BDE810400149FFF7AABF6C2B0008FB
:100260000022084B58631A609A6842F480029A6030
:10027000054A1968890701D4013AFAD1D86C80B2CD
:10028000704700BF00240140A1860100042807D860
:10029000DFE800F003070B0E12000122084B1A6181
:1002A00070474FF48032064BF9E70222044BF6E721
:1002B0004FF40032024BF2E74FF08062004BEEE762
:1002C000000C014072B6002319460C4800EBC30233
:1002D00001330C2B5171F9D14FF08042D36823F0D8
:1002E0000203D3604FF48032054B1A614FF40032A1
:1002F0001A614FF080621A6162B67047E403002011
:10030000000C0140431E13F8012F3AB111F8010B04
:1003100010B18242F7D00020C0B270470878B0FA1E
:1003200080F04009F8E730B503782D2B11D14FF05C
:10033000FF34013000210A25431E01E005FB0121A5
:1003400013F8012F303AD0B20928F7D904FB01F095
:1003500030BD0124EEE70000084B986810F400500F
:1003600009D1074B1B889BB233B9064B1878B0FAFA
:1003700080F0400970470020704700BF000C01402A
:100380006E0400206C0400200B8873B5834232D2C7
:1003900002F10043013B31F8133083420DD8013A9A
:1003A000D4B2234600208DF804408DF80530BDF806
:1003B000043043EA004002B070BD002601243346F9
:1003C00031F814501C46A84203F10103DBB20AD8ED
:1003D00031F816204FF47A71801A4843AD1AB0FBF9
:1003E000F5F080B2DFE75C1CA2421E46E8D800238D
:1003F00018461C46D7E7002423462046D3E70000D2
:10040000B0F5FA5F30B522D9B0F57A5F1CD2114B46
:1004100000221D4633F8021F1446814202F10102F8
:1004200010D30D4931F8143031F8122035F814404A
:10043000D21A001B50434FF47A7290FBF2F018442A
:1004400080B230BD082AE5D140F2EB10F9E740F266
:100450009F70F6E7AA280008982800082DE9F041C7
:100460000446744F7449FFF7A3FE3988734E204643
:1004700089B2FFF7CAFE20467188FFF7C6FE204604
:10048000B188FFF7C2FE2046B6F90610FFF7C9FE95
:100490002046B6F90810FFF7C4FEB6F80A802046D9
:1004A0004146FFF7B2FE2046B189FFF7AEFE204677
:1004B000F189FFF7AAFE204696F91010FFF7B1FE6A
:1004C0005F4B20461D882946FFF79FFE5D4B204667
:1004D000B3F90010FFF7A5FE5B4B20461978FFF734
:1004E00094FE5A4B2046198889B2FFF78EFE584B6E
:1004F00020469968C1F38031FFF787FEFFF72CFF94
:1005000001462046FFF781FE524B20461988FFF72F
:100510007CFE514B2046B3F90010FFF782FE4F4B93
:100520002046B3F90010FFF77CFE4D4B20461978AA
:10053000FFF76BFE3F88BFB29FB14046FFF760FFF9
:10054000854275D94FF47A732D1A5D43454BB3FB41
:10055000F7F3B5FBF3F1B1F57A7FA8BF4FF47A71E9
:100560008FB239462046FFF750FE20460021FFF7A4
:100570004CFE3D4B20461978FFF747FEFFF7EEFD96
:1005800001462046FFF741FE384B20461968FFF729
:100590003CFE31882046FFF738FE718A2046FFF77F
:1005A00034FE334B2046198889B2FFF72EFE314BBB
:1005B00020461988FFF729FE2F4B20461968FFF7C0
:1005C00024FE2E4B20461978FFF71FFE2C4B2046A9
:1005D0001978FFF71AFE2B4B20461978FFF715FE06
:1005E0001B4B99689A6801F0010196079A689B680D
:1005F00048BF41F00201550548BF41F0040118050C
:10060000134B48BF41F008019B6820461A041E4B5B
:1006100048BF41F010019B68DB0548BF41F0200155
:10062000FFF7F3FD2046BDE8F0411849FFF7C0BDD4
:10063000002796E76E0400206F2B00089E03002021
:10064000600400205E0400206C0400207004002080
:10065000000C014062040020D6030020D4030020D7
:100660004404002080C3C901500400207404002009
:10067000B80300209C030020DC03002000000020C1
:100680006404002072040020000801406C2B000864
:100690004FF0804370B55D6A00236FF00044194647
:1006A0001846104E06EBC30252795AB156F8332061
:1006B000521B032AB8BF032209B1A24202DA144630
:1006C0000121501901330C2BECD14FF0804329B19B
:1006D0005863DA6842F00202DA6070BDDA6822F02C
:1006E0000202F9E7E40300200346022B084670B536
:1006F00003D8FFF7CBFD012070BD4FF08042556A53
:1007000000220C4C04EBC2014E7946B92B4444F84C
:100710003230012308714B71FFF7BAFFEBE701326A
:100720000C2AEFD1044A002013889BB243F0010346
:100730001380E1E7E40300207004002030B5214C71
:10074000214A94F8F431014643435BB2002BD4BFF5
:10075000032301231078034403F0030313701B4A9F
:1007600012F8230002EB83035A7800280CBF4FF4E1
:1007700080054025002A0CBF4FF400028022144857
:10078000056102619A78DB78002A0CBF4FF0807215
:100790004FF48072002B0CBF4FF000734FF40073C6
:1007A000026103610B4B1B785BB10B4BB4F8EC217E
:1007B000B3F9000008449042A8BF104620EAE07058
:1007C000188030BD78040020D3030020D42800080E
:1007D000000C0140D2030020D603002038B50546A6
:1007E0000C460E49FFF7E4FC28460D49FFF7E0FCF4
:1007F00028462C21FFF7CEFC611EC9B2062998BFFE
:10080000084B284694BF53F821100749FFF7D0FC46
:100810002846BDE838400549FFF7CABC762B0008DA
:100820007C2B000864280008712B00086C2B000842
:1008300070B50026184B05461C781E70FFF742FD68
:100840004FF00062154B4FF000711A614FF00042FB
:100850001A61134AA3F5806316704FF48002C3F83F
:1008600010244FF40002C3F810244FF08072C3F834
:100870001024C3F810141A610A4BE4B21E8055B15B
:100880004CB121460848FFF7A9FF2146BDE870405A
:100890000648FFF7A3BF70BD50040020000C0140C4
:1008A0004404002046040020D00100200400002061
:1008B00030B501F140030A8882420FD38D88A842E7
:1008C0000CD3B1F90240B1F90630101A1B1B584382
:1008D000521B90FBF2F0204400B230BD04318B4239
:1008E000E9D1C820F9E7000030B54FF4FE724FF6A9
:1008F000FF7041F221040A4911F8013B80EA03200C
:10090000082305B24000002D80B203F1FF33B8BFC9
:10091000604013F0FF03F4D1013AEDD130BD00BFC8
:10092000780400202DE9F74F0020FFF799FC80465E
:100930000120FFF795FC81460420FFF791FC064655
:100940000520FFF78DFC07460620FFF789FC82464D
:100950000720FFF785FC4FF47A73DFF880B2009030
:10096000BBF8E211A8EB01025A43BBF8E4315B1A71
:10097000502BB8BF502392FBF3F540F6E44340F60A
:10098000FF7103FB09F3B3FBF1F303EB4304132300
:100990006410A4F5FA745C43502394FBF3F4B5F5AA
:1009A0007A7F04F1C804A8BF4FF47A75B4F5966F46
:1009B000A8BF4FF49664642CB8BF6424B6F57A6F70
:1009C00025EAE57580F0BB80B6F5BB7F40F2BA80C2
:1009D00030468349FFF76CFF034640F6E5518F42EE
:1009E00000F2B3807C2F40F2B38038467D490193FA
:1009F000FFF75EFF019BDFF8F0C1BCF80210BCF806
:100A000004E06A1A48BF0332B4EB0E0448BF07344F
:100A100001EBA2020EEBE40E91B2ACF804E0ACF8EC
:100A20000080ACF802104FF00C0C6F4CB4F906E0EB
:100A3000A589A3EB0E0393FBFCF37344E380B4F9A5
:100A40000830C01A90FBFCF049F6F67C1844674B5E
:100A5000208103FB0AF3B3FBFCF34FF0060C608923
:100A60001B1A93FBFCF30344638140F6E4430098B4
:100A70009BF8F6C15843034640F6FF70B3FBF0F312
:100A80005B48BCF1000F77D14FF00A0E5B1B93FB64
:100A9000FEF32B44574D9BB22D88A381ADB2A4F831
:100AA0000EC01DB1544D2D78312D54D8022323741E
:100AB00003889BB243F48073038040F6E173A8F18E
:100AC0000F081FFA88F898450DD8A9F10F091FFAE9
:100AD00089F9994507D80F3EB6B29E4203D80F3F19
:100AE000BFB29F4204D903889BB243F0080303803E
:100AF000424C92B223884248D21A0C2A0FDD038856
:100B000002EB820203EB620340F246529342A8BF1B
:100B10001346B3F57A7FB8BF4FF47A7303804FF46E
:100B2000667203882180A3F57A7353434FF47A7277
:100B3000B3FBF2F31344038003B0BDE8F08F6FF012
:100B4000C7034AE74FF4AF6347E76FF0C70052E7C8
:100B50004FF4AF604FE7772B07D801232374038846
:100B600023F480731B041B0CA6E740F2EE25AB4276
:100B700031D94FF0FF33F1E741F2883C03EB4303F7
:100B80005B106345D4BFC5EB030AC5EB0C0A0A230F
:100B90009AFBF3FABBF8FA31AA44BBF8F8511FFAF2
:100BA0008AFE5B1B9BB20EFB03F3B3FBFCF31D44FD
:100BB00041F22433A4F80CE0AEF1320E1FFA8EFE9F
:100BC000ADB29E45E5813FF671AFB5F5757FD0D3E7
:100BD000B5F57F7FC1D80023C0E700BF78040020AF
:100BE00028290008E42800089E030020C4DE020033
:100BF000700400206E040020440400205C040020E7
:100C00009C03002070B504460E4615460D49FFF7BB
:100C1000CFFA31462046FFF7CBFA2C212046FFF7CA
:100C2000B9FA002D04DA2D212046FFF7B3FA6D4200
:100C300029462046FFF7C7FA2046BDE87040024922
:100C4000FFF7B6BA812B00086C2B0008214A10B5BB
:100C50004FF4007314460021013B02F8011BFBD145
:100C60001D4BDFF878C01E4AC4E900C3EA231D49C2
:100C700011F8010B013B02F8010FF9D1EA231A4ADE
:100C80001A4911F8010B013B02F8010FF9D14FF499
:100C9000C8621749A4F8DE21164A1748C4E9781239
:100CA00002F1BB5202F5801202F60842C4F8E821B4
:100CB000124A84F8F631C4E97B0244F20162104B17
:100CC000A4F8F421C4F8F831FFF70EFEA4F8FC01F3
:100CD00010BD00BF780400200500000249464556BB
:100CE0007F040020562A0008690500206C290008AE
:100CF0008A02A401880EE803B4005A001E004C04C6
:100D0000BC0214052DE9F0430446002787B0E288B1
:100D1000A38892B29BB29A4202D107B0BDE8F08399
:100D2000E3889BB223441A7AE3880A2A03F1010379
:100D3000DBB2E380B4F8C83102D00D2A40F00C8554
:100D4000002BE4D0234483F808716846002304F59F
:100D500084721178A1B1062B2AD015781146202D66
:100D600002F10102F9D05DB140F8041B0D780A468A
:100D700001311DB1202DF9D117700A460133E8E782
:100D800013F0FF0511D0009EBF493046FFF7BAFAB5
:100D900080B12046BD49FFF70BFA2046BC49FFF75A
:100DA00007FA2046BB49FFF703FAA4F8C871AEE77B
:100DB0001D46E8E73046B849FFF7A4FA002800F0DE
:100DC000F580012D00F0F280019EB4493046FFF716
:100DD00099FA054618B12046FFF740FBE5E7304693
:100DE000AF49FFF78FFA002862D02046AD49FFF7E0
:100DF000DFF9AD4E0135204636F8021BEDB2FFF7A4
:100E000004FA0D2DF6D12046A849FFF7D1F909259E
:100E1000A74E204636F8021B013DFFF7F6F915F004
:100E2000FF05F6D120469B49FFF7C2F9DFF884821F
:100E30002046A149FFF7BCF929462046FFF7C3F930
:100E4000C14600260136204639F8021FF6B2FFF7E8
:100E5000DCF90D2EF6D120468E490135FFF7A8F9B1
:100E6000092D08F11A08E3D10026DFF85082204648
:100E70009349FFF79DF931462046FFF7A4F9C14693
:100E80000D25204639F9021F013DFFF7CAF915F07B
:100E9000FF05F6D120467F490136FFF789F9092E73
:100EA00008F11A08E3D187492046FFF7CDF97CE71E
:100EB00030468549FFF726FA00286ED0834D20463C
:100EC000B5F9DC218249FFF79DFE2046B5F8DE2109
:100ED0008049FFF797FE2046B5F8E0217E49FFF7ED
:100EE00091FE2046B5F8E2217C49FFF78BFE2046B3
:100EF000B5F8E4217A49FFF785FE2046B5F8E621EA
:100F00007849FFF77FFE2046B5F8E8217649FFF7DC
:100F100079FE2046B5F8EA217449FFF773FE2046B2
:100F2000B5F8EC217249FFF76DFE2046B5F8EE21C9
:100F30007049FFF767FE2046B5F8F0216E49FFF7CC
:100F400061FE2046B5F8F2216C49FFF75BFE2046B2
:100F500095F9F4216A49FFF755FE204695F8F521E9
:100F60006849FFF74FFE204695F8F6216649FFF7DE
:100F700049FE2046B5F8F8216449FFF743FE2046B4
:100F8000B5F8FA216249FFF73DFE624B2046B3F9FE
:100F900000206149FFF736FE85E730465F49FFF7DD
:100FA000B1F908B15E497FE75E497DE730465E49A9
:100FB000FFF7A8F9002800F03582FFF7CDF908B94E
:100FC0005A4971E7042D3ED9019D59492846FFF73A
:100FD00099F9804620B928465649FFF793F9A0B3FE
:100FE0000298FFF7A0F906460398FFF79CF905461B
:100FF0000498FFF798F9082E01D80C2D01D94E4915
:1010000052E70D22314B02FB0655B8F1000F0ED00E
:1010100042F210729042A8BF1046B0F5FA7FB8BFF6
:101020004FF4FA70043523F8150044493CE7B0F555
:10103000967FA8BF4FF4967003EB450320EAE0705B
:10104000A3F8F200F1E740F0C1813D490198FFF7B4
:1010500059F9002800F0BA81DDE90260FFF763F971
:101060001B4905463046FFF74DF900286AD0642D2C
:101070006FF06303A8BF64259D42B8BF1D46134BA4
:10108000A3F8DC51D1E700BF842B0008892B0008AE
:101090009B2B00086C2B0008AC2B0008B02B000821
:1010A000B72B0008BC2B0008522B0008BE2B0008F1
:1010B000402B00087E040020C22B00086805002099
:1010C000C52B0008C82B0008CC2B00087804002092
:1010D000D32B0008E72B0008F02B0008052C000894
:1010E000112C00081D2C0008312C0008402C000891
:1010F0004F2C00085D2C00086D2C00087B2C00088C
:101100008A2C0008982C0008AB2C0008B32C00088F
:10111000CD2C0008B2030020E72C0008F82C0008B2
:10112000FD2C0008682D0008742D0008782D00089B
:10113000892D00088E2D0008922D00089C2D000896
:101140009F2D00083046A249FFF7DCF868B140F651
:101150002823AB42A8BF2B46B3F57A7FB8BF4FF424
:101160007A739C4AA2F8DE315FE730469A49FFF76E
:10117000C9F868B140F69803AB42A8BF2B46B3F557
:10118000E17FB8BF4FF4E173924AA2F8E0314CE737
:1011900030469249FFF7B6F850B140F6AC53AB4237
:1011A000A8BF2B468B4A23EAE373A2F8E2313CE75F
:1011B00030468B49FFF7A6F868B140F6FF73AB42A3
:1011C000A8BF2B46B3F5C87FB8BF4FF4C873814A98
:1011D000A2F8E43129E730468249FFF793F868B175
:1011E00040F21453AB42A8BF2B46B3F52F7FB8BFD4
:1011F0004FF42F73774AA2F8E63116E730467A4962
:10120000FFF780F8B8B142F23413AB42A8BF2B46C7
:1012100041F27C529342B8BF13466E499AB2B1F87C
:10122000EA0163338342A1F8E821FFF6FEAE64329F
:10123000A1F8EA21F9E630466C49FFF763F8A0B15E
:1012400042F22833AB42A8BF2B4641F2446293429C
:10125000B8BF13465F49B1F8E821A1F8EA3102F1BD
:10126000630083423FF7E1AEE1E730466049FFF7B4
:1012700049F8C8B1B5F5967FA8BF4FF496753C2DD7
:10128000B8BF3C25534BADB2B3F8EE21A3F8EC51F7
:10129000AA42B3F8F02188BFA3F8EE51AA427FF624
:1012A000C4AEA3F8F051C0E630465249FFF72AF821
:1012B00050B1484AB2F8EC31AB42A8BF2B4623EA02
:1012C000E373A2F8EE31B0E630464B49FFF71AF867
:1012D00050B1404AB2F8EC31AB42A8BF2B4623EAEA
:1012E000E373A2F8F031A0E630464449FFF70AF86C
:1012F00068B1B5F5C86FA8BF4FF4C865B5F5487FAC
:10130000B8BF4FF44875334BA3F8F2518DE6304621
:101310003B49FEF7F7FF40B1002DACBF01224FF073
:10132000FF322C4B83F8F4217FE630463549FEF737
:10133000E9FF40B1462DA8BF4625264B25EAE575B5
:1013400083F8F55171E630462F49FEF7DBFF30B1E7
:10135000003D18BF01251F4B83F8F65165E6304666
:101360002A49FEF7CFFF68B1B5F57A7FA8BF4FF4E1
:101370007A75B5F5FA7FB8BF4FF4FA75154BA3F837
:10138000F85152E630462249FEF7BCFF68B1B5F588
:10139000FA6FA8BF4FF4FA65B5F57A7FB8BF4FF47E
:1013A0007A750C4BA3F8FA513FE630461949FEF71F
:1013B000A9FF48B1B5F5967FA8BF4FF49675164BB7
:1013C00045EAE5751D8030E614496DE514496BE585
:1013D000E72B000878040020F02B0008052C0008FB
:1013E000112C00081D2C0008312C0008402C00088E
:1013F0004F2C00085D2C00086D2C00087B2C000889
:101400008A2C0008982C0008AB2C0008B32C00088C
:10141000CD2C0008E72C0008B2030020A52D000801
:10142000BB2D00083046A249FEF76CFF002851D0C2
:10143000FEF792FF00283FF4C3AD9E4D9E4A9F4B9E
:10144000C5E90023FFF750FAA5F8FC0172B69C49E4
:101450009C4D0B69180641BF9B4B4B6003F18833D1
:101460004B603423CB600B6943F002030B614D6189
:101470000B6943F040030B61FEF75AFE0B6923F042
:1014800002030B61A8B10B698A4E43F001030B61A3
:10149000294605F5007536F8023B0B80FEF748FE3D
:1014A00010B10231A942F6D1854A136923F0010334
:1014B0001361834A136943F08003136162B638B93C
:1014C000824A834913889BB243F400731380EBE490
:1014D0008049E9E430468049FEF714FF804640B178
:1014E000FEF73AFF00283FF46BADFFF7AFFB7B49F7
:1014F000DAE430467A49FEF705FF78B1FEF72CFFB3
:1015000000283FF45DAD774B774A83F80080694B44
:101510007649B3F8EC3128331380C5E4304674497A
:10152000FEF7F0FE002800F0A380012D00F0A0805F
:10153000019E70493046FEF7E5FE024620B10120CB
:10154000FFF776F96C49AFE4FEF706FF00283FF499
:1015500037ADFEF701FF002833D01046FFF768F9DA
:10156000664B304666491D68FEF7CCFE80B101220D
:10157000644B05F5FA651A704FF40062624B1D600A
:10158000624B1A6162492046FEF712FE31468BE437
:1015900030466049FEF7B6FEA8B10222594B04213D
:1015A0001A704FF4806240F6B830574B32351D60E8
:1015B000564B1A61FFF798F80028E3D10020FFF797
:1015C00037F9554970E430465449FEF79BFE58B14F
:1015D000032201214B4B32351A704B4B1D604B4B94
:1015E00019614FF47A70E5E730464D49FEF78AFEFF
:1015F00050B10422434B32351A700222424B032170
:101600001D60424B1A61ECE730464649FEF77AFE10
:10161000804620B930464449FEF774FEB8B1434BCA
:101620009B689B04CDD51422364BC8F106085FFA9F
:1016300088F883F800803E4B1A803E4B4FF480724E
:101640001D60314B05F5FA751D603B4B99E730463F
:101650003A49FEF757FE0028B3D00722294B05F57B
:10166000FA651A701422284B1D60354B1A7089E7F1
:1016700030463449FEF746FE60B1012D0AD001988C
:10168000FEF751FE1428A8BF14202F4B20EAE0706B
:101690001870CAE430462D49FEF734FE28B1002305
:1016A0000A4A13802A4A1380BFE42A49FFF7FCBB89
:1016B000C72D000878040020494645560500000261
:1016C00000200240007C00082301674570040020D0
:1016D000CC2D0008D62D0008DF2D0008E82D0008CD
:1016E000F82D0008D2030020D0030020002E0008AF
:1016F0000E2E0008132E0008182E00087404002077
:10170000252E0008500400204C040020000C01404D
:101710005C2E00082A2E0008652E0008332E0008D3
:10172000392E00083F2E0008482E00080010014006
:10173000460400204804002000080140522E000802
:1017400044040020722E000801000020792E0008B9
:1017500062040020852E0008BE2B07D8591C2344A4
:10176000A4F8C81183F80821FFF7D1BA204603492D
:10177000A4F8C871FEF768FDFFF7C9BA992E0008F2
:10178000024A136801331360704700BF74040020DD
:101790000148FEF7EDBC00BFD00100200148FEF774
:1017A000E7BC00BF040000204FF080431A6970B509
:1017B00092071BD500210E461A690D4C22F0020239
:1017C0001A615D6A04EBC1035A7942B154F83120C1
:1017D000521B022A03DC18795E71FEF757FD0131B6
:1017E0000C29EFD1BDE87040FEF752BF70BD00BFBD
:1017F000E4030020F8B5754B5A69920608D52022FB
:101800005A614FF08043724A5B6A116809B91360EC
:10181000F8BD11681360591A6E4AA1F13200904266
:10182000F6D86D4A6D4813606D4B1A68002A4FD088
:101830000A241A681201B2FBF4F28A4248D200214B
:10184000684A1170012202701A686AB1242219686C
:101850005143654AB2FBF1F242F6E0618A4228BF89
:101860000A46624992B20A80614A117801F0FF0289
:101870000029CDD101780029CAD05A49087810B181
:1018800008781228C4D109781E68584B0029594994
:101890001B88B1F8EA019BB214BF022701279842C6
:1018A000554D2FD801222B889BB243F020032B806B
:1018B000FEF754FC002840F08480012F1CBF02205A
:1018C0000327002A35D03846BDE8F840FEF7DEBCD5
:1018D0001A6882B919600278002AB5D041490A789D
:1018E000212A83BF00220270FF220A789CBF0132A6
:1018F000D2B20A70A8E71A68C2EBC2020A44D20840
:101900001A60E8E7B1F8E81199420CD83B4B1A7815
:1019100082F001021A701A782B88D2B29BB243F07F
:1019200020032B80C4E72B8823F020031B041B0C0F
:10193000F7E7334B334A1C88334B24B21B881BB266
:10194000E41A322CB8BF3224242374435C434FF48E
:101950006163B4FBF3F413889BB214339C4228D91F
:10196000138801469BB2E01AFEF7BEFE39462046B8
:10197000FEF7BAFE254B1B78002B7FF449AF244BB2
:10198000188840F6F4335E43C823B6FBF3F680B202
:10199000B04205D930462B889BB243F004032B801C
:1019A0004FF480621B4B04211A61BDE8F840FEF73A
:1019B0009BBEFEF76BFC2B889BB243F002032B808F
:1019C000D4E7012F18BF03277DE700BF00040140C3
:1019D000E00300206E860100680400206C040020F3
:1019E000DC03002000000020008793036E04002029
:1019F000500400207804002070040020D803002048
:101A0000B4030020B8030020B603002064040020C3
:101A1000BA030020000C01402DE9F04F214B87B0A4
:101A20001A6842F001021A601F4A19688E0701D431
:101A3000013AFAD15A6822F003025A601A4A5968E8
:101A400011F00C0F01D0013AF9D11A6822F080721E
:101A50001A60154A19688D0101D5013AFAD112218F
:101A6000124A1160124A5A601A6842F080721A6073
:101A7000104A19688C0123D4013AFAD25A6822F02C
:101A8000030242F002025A600A4A596801F00C014E
:101A9000082900F0EE84013AF7D2012206490748EE
:101AA00026E000BF0010024081841E00002002409A
:101AB0000084380080841E000090D0030048E801B4
:101AC000002ADBD15A6822F003025A60CE4A5968D4
:101AD00011F00C0F01D0013AF9D11A68102022F050
:101AE00080721A600022C9495A600860C8490846D5
:101AF000C84DC94CC94E2960306022709A69DFF820
:101B0000209342F4844242F01D029A61DA69C5488A
:101B100042F4003242F00102DA61C34B4FF4000795
:101B2000D3F800284FF0200C22F00F02C3F8002851
:101B3000D3F8002822F0F002C3F80028D3F80028D8
:101B400022F47022C3F80028D3F8002822F470028F
:101B5000C3F80028D3F8002822F07062C3F80028E8
:101B6000D3F8002822F07042C3F80028D3F8002CE4
:101B700022F00F0242F00202C3F8002CD3F8002C2E
:101B800022F0F00242F02002C3F8002CD3F8002C1F
:101B900022F0706242F00072C3F8002CD3F8002CDF
:101BA00022F0704242F00052C3F8002CD3F8042C0B
:101BB00022F00F0242F00202C3F8042CD3F8042CE6
:101BC00022F0F00242F02002C3F8042CD3F8042CD7
:101BD00022F4706242F40072C3F8042CD3F8042C8F
:101BE00022F4704242F40052C3F8042CD3F8042CBF
:101BF00022F0704242F00052C3F8042CD3F80428BB
:101C000022F00F0242F00202C3F80428D3F8002C9D
:101C100022F4700242F40002C3F8002C834AD16817
:101C200041F02001D160D3F8041C21F4702141F46B
:101C30000021C3F8041CD16841F48051D160D3F86D
:101C4000041C21F4700141F40001C3F8041CD168A4
:101C500041F40051D160D3F8041C21F0706141F0CF
:101C60000061C3F8041CD16821F48041D160D9F827
:101C7000041021F4700141F40001C9F80410D9F8EE
:101C80000C1041F40051C9F80C104FF4803111616F
:101C90004FF4003111614FF0806111614FF000612C
:101CA00011614FF0004111614FF0807101614FF4FB
:101CB00080001061176111614FF0007111612A6895
:101CC0005B495C48B2FBF1F24FF08041013A8A6215
:101CD0004FF0FF32CA6201224A610A604FF0E021F0
:101CE0004FF0805280F81CC0C1F80021DA6822F061
:101CF000F00242F01002DA604F4AD2F800E04EEAF9
:101D00000C0EC2F800E0D2F808E04EEA0C0EC2F861
:101D100008E0D2F80CE02EF0200EC2F80CE0C2F879
:101D200014C01022C275C1F80071D3F80428434FC3
:101D300022F0F00242F0A002C3F80428D3F80428ED
:101D400022F4706242F48062C3F80428D3F80028B9
:101D500022F4706242F42062C3F80028D3F800280D
:101D600022F4704242F48042C3F800284FF4E1327A
:101D70002B6803F56143B3FBF2F3BB60336803F5F3
:101D80006143B3FBF2F32E4A936042F22C03FB60F3
:101D9000D36060234FF47A7280F8253080F82630C3
:101DA000C1F804312B680025B3FBF2F3013B4B6112
:101DB00007238D610B61234B2278A3F11F04AA42F4
:101DC00008BF1C4620482146FEF73EFA21461F4820
:101DD000FEF73AFA1E4B1F4A1A611F4A9A6042F2F6
:101DE0000F720295029B934240F24883184B9A6807
:101DF00042F008029A60194A9968080740F1438343
:101E0000013AF9D22CE000BF81841E00002002407C
:101E100000127A00C003002072040020BC030020DE
:101E2000001001400008014000000140000C01408A
:101E300040420F0000E400E000040140003801408F
:101E400000440040CA2E0008D001002004000020F9
:101E500000240140B66DDB0001001E0020A1070038
:101E60009A6842F004029A60C24BC34A91684907DB
:101E700040F11383013BF9D2C049C148FEF7E4F9B0
:101E8000BE49C048FEF7E0F9BF4AC04B1446C049FE
:101E90001846013300788B4202F8010BF8D1226812
:101EA000BC4B9A420AD16268BB4B9A4206D1FEF7FC
:101EB0001BFDB4F8FC31834200F0F982FEF7C6FE48
:101EC0000026B4F8EC311024B44A28331380013CC6
:101ED000FEF728FD14F0FF04F9D1B14B9A885A821D
:101EE000FEF73CF918B94FF40062AE4B1A61AE4DE3
:101EF000AE4905F58774002E08BF2C46A048FEF7B2
:101F000057F9AB499E48FEF753F92C219C48FEF740
:101F100041F921469A48FEF797F99A4805F22711A8
:101F2000FEF746F99748A5F51171FEF741F92C2106
:101F30009448FEF72FF921469248FEF785F945F2BD
:101F400055539C4A13600423536040F271239360FD
:101F5000994BD168002900F0AC82013BF9D24AF6D6
:101F6000AA22944B1A604CF6CC421A604AF6AA2276
:101F7000904B83481A60914B1C684FF080435B6A1A
:101F80000093FEF7BFFE7F48FEF7BCFE8C4A136845
:101F9000E31A092B40F2ED811460FEF7C3FC894B74
:101FA000DFF8FC811F88884BBFB21A88B8F802A0FE
:101FB000BA4238BF1F80854BB3F90030002B41DA9D
:101FC0000D2283493846FEF7DFF90922C6B2C0F375
:101FD000072B050C7F4903905046FEF7D5F94FF0CB
:101FE0000D0CC3B20CFB03F3674A991902EB4101D4
:101FF000B1F9F2E04FF47A715B4402EB4303B3F9B9
:10200000F2300590A3EB0E036B4393FBF1F37344A3
:10201000C0F3072E0CFB0EFE7644DE4402EB4606B0
:1020200002EB4E02B6F9F260B2F9F220000C921BFC
:102030006A4392FBF1F23244D21A424392FBF1F22C
:1020400013441BB240F25232B8F90650B7F5E17FA3
:1020500038BF32239542604940F335820A20A5F209
:10206000523202EB4202B2FBF0F2462AD8BF9B1A70
:102070000A88C8BF463B92B21BB242F01002B3F5C9
:10208000967FA8BF4FF4967323EAE3731BB20A80CE
:1020900038460D224E490193FEF776F909225FFA80
:1020A00080F8C0F3072B060C4A4904905046FEF70F
:1020B0006BF94FF00D0CC3B20CFB03F3324903EB89
:1020C00008025B440432043331F812E031F8132083
:1020D0004FF47A73A2EB0E02724392FBF3F2724456
:1020E000C0F3072E0CFB0EFEF044DE4408F104089A
:1020F0000EF1040E31F818C031F81EE00590AEEB79
:102100000C0E06FB0EFE9EFBF3FEE644AEEB020E4B
:10211000000C00FB0EFE9EFBF3FEB1F8E0017244E2
:1021200092B2121A15F1630F22EAE272C0F21A8219
:1021300040F2ED20854260DC002D40F3CA81C82DBD
:1021400040F3CC81B5F5C87F40F3CD81B5F5167F5E
:1021500000F302824FF416704FF0040C0326DFF8F0
:102160007CE0DFF87C803EF816303EF81CC038F981
:10217000166037E020A1070000240140F32E00087C
:10218000D00100200400002078040020007C00081A
:10219000007E00084946455605000002D003002095
:1021A0009E030020000C0140DF2D0008062F0008D0
:1021B0009B2B000800300040400D030074040020F9
:1021C000580400206E04002062040020B2030020A6
:1021D000522B0008402B000870040020BC28000887
:1021E000C8280008ACEB030CA5EB060E0EFB0CFC9C
:1021F000801B9CFBF0FC63449BB26426DFF8F4C2B6
:10220000BCF90800704300F5852000F2FE2000288C
:1022100040F3AB81B84E96FBF0F040F29C46B042E2
:10222000A8BF3046B0F55C7FB8BF4FF45C704FF488
:102230007A76BCF812E006FB0EFEB04EB64540F2D0
:10224000978140F2F536BEFBF6F6B6F5876FA8BF6C
:102250004FF4876653434FF47A72B3FBF2F3434370
:10226000B3FBF2F35E43B6FBF2F6A54BB5F5617F27
:102270001B88BCF80A5003FB06F6B6FBF2F6B1F871
:10228000E631284603FB06F6C8BF4FF48263B6FB6F
:10229000F2F6C4BF7343B3FBF2F6FEF7B1F8994B05
:1022A000019A99491A80B1F8DC31984AC3F5D46390
:1022B00004331BB2138042F2107382199A42A8BFF2
:1022C0001A46B2F5FA7FB8BF4FF4FA72904892B24C
:1022D000B5F57A5F028080F060819D4240F24B81CB
:1022E00042F6E0639D4240F24A8143F2E8539D4248
:1022F00040F2498143F6A4039D4200F248814FF029
:10230000040C0326DFF80CE2DFF80C823EF816001E
:102310003EF81CC038F81660ACEB000CAD1B05FB9A
:102320000CFC9B1B9CFBF3FC604480B2B1F8DE11FB
:102330007A4B414399424FF47A7306D9B1FBF3F3D8
:1023400040F628218B42A8BF0B4675499BB2BAF1D3
:102350000E0F0B8000F22481B7F5E16F40F220816F
:1023600001237049DBB20B706F4B019919806F4BE1
:102370001A806F4B6F4A1D886F4B1678D3F8008018
:10238000ADB2F6B2B8F1000F1AD0009BA3EB080172
:102390006A4B994214D906B985B172B600231370FD
:1023A000634A1380FF22664B1A7062B6654A13882F
:1023B0009BB243F040031380FDF784FF00263546AF
:1023C000614F3B78052B12D03B78062B0FD0D9F804
:1023D00008305C4A13F4005F138840F0F3809BB22E
:1023E00043F0800313804FF08073584A13613B78A9
:1023F000072B00F070814449DFF854A191F8F631C1
:10240000544A002B40F05F81002E00F05C81B5F54E
:10241000E17FC0F05881FDF7A1FE002840F0538114
:1024200041F64C50334B5B89A3F50C53283B9BB2D0
:10243000834200F24881DAF80030002B00F07D8101
:10244000E31AB3F5FA6F91F8F51180F07A81142947
:1024500000F28B813220434341F28830A3F5C3332D
:10246000A03BB3FBF0F31433DBB2994228BF19460B
:102470006CE1002A3FF426ABFFF70FBB00BF029BC5
:1024800001330293AEE4002A7FF4EAAC2D490A88B6
:1024900092B242F008020A80E2E4002B7FF4ECAC36
:1024A000284A13889BB243F008031380E4E4012612
:1024B00007E5002B7FF453AD224A13889BB243F00B
:1024C0000803138052E50A8822F010021204120C4D
:1024D000D5E500204FF0010C064640E6C8204FF03D
:1024E000020C01263BE64FF4C8704FF0030C0226A5
:1024F00035E600BF9E030020301D7911C5970B0003
:102500009C030020B603002078040020B4030020C0
:10251000BA0300208C280008802800083F420F00E2
:10252000B8030020640400205E0400206004002042
:102530006E0400206C0400206804002090D003008A
:10254000000000207004002050040020000801401A
:10255000C40300204404002040F2EE204FF0050C9C
:102560000426FCE540F2AA5347E64FF47A705EE693
:1025700040F2EE266EE64FF0010C0026C2E64FF068
:10258000020C0126BEE64FF0030C0226BAE64FF419
:102590007A534FF0050C0426B4E64FF46B70C5E691
:1025A000FDF7DCFD00287FF4DBAE9A4B1B8813F0AF
:1025B00008033FF4D6AE40F2B6339A4594BF0023E9
:1025C0000123CEE623F080031B041B0C13804FF481
:1025D0008073914A1361914A1368E31A032B7FF6C3
:1025E00006AF8F4B14601A78CAB9DFF838B2BBF85F
:1025F00000A0BAF1000F08D04FF0FF300AF1FF3A07
:10260000FEF79CF8ABF800A0F1E601221A70864BA9
:10261000A3F800A0854BB3F8EE21854B1A808549BD
:10262000834A0B68E31A312B05D90C60FDF796FD40
:1026300060B1002313807C4BB3F90010B2F9003075
:1026400099423BDA0120FEF779F8D0E6B5F5E17F53
:1026500003D2764BB3F8EE31ECE7774B59881D295E
:10266000E7D8B3F90630C3F5FA73DB0013F1630F53
:1026700005DB642093FBF0F03228A8BF32206B49C1
:10268000B1F8F2C1ACEB050C1CF5037F13DB192389
:102690009CFBF3FCBCF12D0FA8BF4FF02D0CB1F843
:1026A000F031B1F8EC11034463448B42A8BF0B46F0
:1026B00023EAE373BEE76FF0130CF0E77FF797AE02
:1026C0004FF0FF30BFE7002313704FF00042CAF80D
:1026D00000305A4B1A61FDF741FD002847D0012018
:1026E000FEF7A6F84FF00062544B1A61FDF7EAFDC1
:1026F0003B7803F0FF024BB1FDF72EFE18B1FDF75A
:102700002DFD00284AD00120FEF792F84C4B187896
:1027100000283FF42BAC4B490B68E21A4FF47A7354
:10272000B3FBF0F39A42FFF421AC47480C60FDF78D
:1027300095FE4648FDF792FE18E42346CAF800408D
:102740007EE641F6573083427FF684AE11706422F4
:10275000B4FBF2F302FB13438B422CBF4FF0004358
:102760004FF40043354A1361B5E71421EEE73B7897
:10277000012BBDD0B4F5FA6F304A08D3B8F1000F81
:1027800009D0009B3249A3EB08038B4203D84FF4D6
:1027900000631361ACE74FF00063FAE72D4B1B6851
:1027A000E31A002BAFDA012A04D14FF40062234B65
:1027B0001A61ABE7072A0FD11422274B1A70642243
:1027C000B4FBF2F302FB1343132B8CBF4FF0004218
:1027D0004FF40042194BEBE7531F012B96D81F4EC5
:1027E0003588002D92D01E490B68E31A002B8DDB33
:1027F000052A04F1050314BF4FF0FF3001200B60E0
:10280000FDF79CFF6B1E9BB23380002B7FF47EAFE5
:1028100079E700BF7004002000080140CC030020CD
:10282000D2030020D0030020D6030020780400202B
:10283000D4030020C80300209E030020000C0140A8
:102840000100002054040020D001002004000020DA
:102850003F420F004C0400204404002046040020A6
:1028600048040020252E00082A2E0008332E0008D8
:10287000392E00083F2E0008482E0008522E00086E
:10288000401F1027E02EE835A438803EDC05D80430
:102890006004E803E803AC039F071F06FD0440043F
:1028A0006C03D60289022B02EB01401F282310275C
:1028B000F82AE02EC832B036983A803EAA0546057E
:1028C000B0044C040604E8039CFF0000C80090011B
:1028D0005802EE02010000000000010000010000AB
:1028E00000000001E60D38FFBE0C9CFF4D0B000000
:1028F000AD0964000408C80075062C011A05900192
:10290000FB03F401170358026602BC02DE01200338
:10291000760184032701E803EB004C04BC00B004FB
:10292000980014057C007805A00F38FF570F9CFF16
:10293000E50E00003D0E6400580DC800360C2C0159
:10294000E20A90017109F401FE075802A006BC02D8
:10295000670520035D0484038003E803CE024C0472
:102960003F02B004CF0114057601780532006400FF
:102970008C00B400DC000401180118010E01FA00FB
:10298000F000DC00C800320064008C00B400E000FD
:1029900008011C011C011201FE00F000DC00C8004F
:1029A000320064008C00B400E6000E012201220116
:1029B00018010401F000DC00C80032005A00820057
:1029C000B400E6000E012201220118010401F0000A
:1029D000DC00C80032005A008200AA00DC000401BA
:1029E000180118010E01FA00E600D200BE00320004
:1029F00050007800AA00D200FA000E010E01040176
:102A0000F000DC00C800B400320050007800A000E4
:102A1000D000F8000C010C010201EE00DA00BC004D
:102A2000A800320050007800A000C800F0000401A7
:102A30000401FA00E600D200B400A0003200500009
:102A40007800A000C800F00004010401FA00E600CC
:102A5000D200B400A00058073606BE05EC047A0385
:102A6000020302030203020302030203020302033E
:102A70008A0786060E068205880424041A040604C2
:102A8000FC03FC03E803DE03C003D007FE06860652
:102A900054061806DC05BE058C0578056405460558
:102AA0001E05E2046608D00776073A071C07EA0607
:102AB000D606C206AE06A4068606680636066A096B
:102AC000E808980866085208480848083E082A0896
:102AD00016080208E407B2075A0A000AC409B00936
:102AE000B009B009C409C409BA099C097E09600982
:102AF0002409860B360B180B0E0B220B4A0B680BA6
:102B00007C0B680B360B180BFA0ABE0A760C440CC9
:102B1000300C260C4E0C800CA80CB20CA80C760CB9
:102B2000580C440CFE0B5C0D340D200D2A0D520D7B
:102B3000700D8E0D7A0D520DF80CE40CB20C6C0C6D
:102B40000000140032006400C8005E012602EE029C
:102B5000E80358028403B00440069808B80BD80E66
:102B6000941188137C157017581B401F0D0A0054D0
:102B7000004E4F4E4500544553542C00444F4E4593
:102B800000502C0050494E47004F4B2C56494B48A3
:102B90005233305F53544D33322C00302E382E30A8
:102BA0002D43362D42542D4449414700474554009A
:102BB000535441545553004D4150530052000D0A97
:102BC0004C00462C00492C00454E440050415241D7
:102BD0004D5300747269676765725F7472696D5FE7
:102BE00074656E746873006477656C6C5F757300F0
:102BF000696E6A6563746F725F6465616474696D40
:102C0000655F7573007470735F6D696E5F72617775
:102C1000007470735F6D61785F72617700667565CF
:102C20006C5F7363616C655F7065726D696C6C6518
:102C3000007265765F6C696D69745F736F667400AE
:102C40007265765F6C696D69745F68617264006952
:102C500061635F6D61785F73746570730069616350
:102C60005F6372616E6B5F7374657073006961633B
:102C70005F686F745F7374657073006961635F741C
:102C800061726765745F72706D006961635F64692A
:102C900072656374696F6E006F325F686561746539
:102CA000725F647574795F706374006F325F6D6F0B
:102CB0006465007769646562616E645F6C616D6212
:102CC00064615F6D696E5F6D696C6C6900776964E2
:102CD0006562616E645F6C616D6264615F6D617895
:102CE0005F6D696C6C690066697865645F69676EC1
:102CF0005F74656E74687300494E464F00494E46D6
:102D00004F2C53544D3332463130334336543641D1
:102D10002C424152454D4554414C2C55534152543F
:102D2000312C484330362C4143545541544F525F67
:102D3000544553542C46554C4C5F444941472C3321
:102D4000362D312C313730302C424F5343483032FE
:102D500038303135383131372C44525638383433E5
:102D60002C564247303848004552522C6261645F0D
:102D700067657400534554004552522C7365727652
:102D80006963655F6C6F636B004655454C0049474E
:102D90004E004552522C696E646578004F4B0050CE
:102DA0004152414D004552522C756E6B6E6F776EDD
:102DB0005F706172616D65746572004552522C627C
:102DC00061645F7365740053415645004552522C4F
:102DD000666C617368004F4B2C5341564544004468
:102DE000454641554C5453004F4B2C4445464155A4
:102DF0004C54535F52414D00484F4D4549414300AB
:102E00004F4B2C4941435F484F4D494E4700544575
:102E100053540053544F50004F4B2C544553542C93
:102E200053544F500050554D5000494E4A4543545D
:102E30004F5200434F494C3100434F494C320049F7
:102E400041435F4F50454E004941435F434C4F5310
:102E500045004F325F484541544552004F4B2C547A
:102E60004553542C004552522C6261645F74657363
:102E7000740053545245414D00434C454152464124
:102E8000554C5453004552522C756E6B6E6F776ED5
:102E90005F636F6D6D616E64004552522C6C696E9C
:102EA000655F746F6F5F6C6F6E6700424F4F545376
:102EB000544147452C554152545F52454144592C89
:102EC0004853495F504C4C363400424F4F54535492
:102ED0004147452C554152545F52454144592C4875
:102EE0005349385F46414C4C4241434B00464C41AC
:102EF000534800424F4F5453544147452C48575F65
:102F0000524541445900424F4F542C56494B485268
:102F100033305F53544D33322C000000FF0A000061
:102F2000004400400000000000000000000000001D
:102F30000000000000000000000000000000000091
:102F40000000000000000000000000000000000081
:102F50000000000000000000000000000000000071
:102F60000000000000000000000000000000000061
:102F70000000000000000000000000000000000051
:102F80000000000000000000000000000000000041
:102F90000000000000000000000000000000000031
:102FA0000000000000000000000000000000000021
:102FB0000000000000000000000000000000000011
:102FC0000000000000000000000000000000000001
:102FD00000000000000000000000000000000000F1
:102FE00000000000000000000000000000000000E1
:102FF00000000000000000000000000000000000D1
:1030000000000000000000000000000000000000C0
:1030100000000000000000000000000000000000B0
:1030200000000000000000000000000000000000A0
:103030000000000000000000000000000000000090
:103040000000000000000000000000000000000080
:103050000000000000000000000000000000000070
:103060000000000000000000000000000000000060
:103070000000000000000000000000000000000050
:103080000000000000000000000000000000000040
:103090000000000000000000000000000000000030
:1030A0000000000000000000000000000000000020
:1030B0000000000000000000000000000000000010
:1030C0000000000000000000000000000000000000
:1030D00000000000000000000000000000000000F0
:1030E0000000000000000000000000000038014067
:1030F00000000000000000000000000000000000D0
:1031000000000000000000000000000000000000BF
:1031100000000000000000000000000000000000AF
:10312000000000000000000000000000000000009F
:10313000000000000000000000000000000000008F
:10314000000000000000000000000000000000007F
:10315000000000000000000000000000000000006F
:10316000000000000000000000000000000000005F
:10317000000000000000000000000000000000004F
:10318000000000000000000000000000000000003F
:10319000000000000000000000000000000000002F
:1031A000000000000000000000000000000000001F
:1031B000000000000000000000000000000000000F
:1031C00000000000000000000000000000000000FF
:1031D00000000000000000000000000000000000EF
:1031E00000000000000000000000000000000000DF
:1031F00000000000000000000000000000000000CF
:1032000000000000000000000000000000000000BE
:1032100000000000000000000000000000000000AE
:10322000000000000000000000000000000000009E
:10323000000000000000000000000000000000008E
:10324000000000000000000000000000000000007E
:10325000000000000000000000000000000000006E
:10326000000000000000000000000000000000005E
:10327000000000000000000000000000000000004E
:10328000000000000000000000000000000000003E
:10329000000000000000000000000000000000002E
:1032A000000000000000000000000000000000001E
:1032B0000000000000000000E80300000000F5032B
:1032C000C800C800D430C20100000200F503FFFFAF
:1032D000A40632004006400600127A0000127A006E
:00000001FF
