:020000040800F2
:1000000000280020F1000008ED000008ED000008C5
:10001000ED000008ED000008ED0000080000000001
:10002000000000000000000000000000ED000008DB
:10003000ED00000800000000ED0000084B01000882
:1000400000000000000000000000000000000000B0
:1000500000000000000000000000000000000000A0
:100060000000000000000000000000000000000090
:100070000000000000000000000000000000000080
:100080000000000000000000000000000000000070
:10009000ED00000800000000000000002D03000833
:1000A0000000000000000000000000000000000050
:1000B000D701000800000000000000000000000060
:1000C0000000000000000000000000000000000030
:1000D000000000005B010008CB01000800000000E8
:0C00E00000000000000000000000000014
:1000EC00FEE7D4D480B56F4640F2200040F2000108
:1000FC00C2F20000C2F2000181420DD244F228612A
:10010C0040F20002C0F60001C2F2000251F8043BBA
:10011C0042F8043B8242F9D341F6400040F2200100
:10012C00C2F20000C2F20001814205D2002200BFDF
:10013C0041F8042B8142FBD300F030FBFEE740F288
:10014C002000C2F20000016801310160704740F2EA
:10015C002400C2F2000000F000B8D0B502AF016874
:10016C000A6812F0280F11D0D1F804C093060DD5EF
:10017C00B0F804E0C4880EF101036FF35F23A342CF
:10018C001EBF00EB0E0484F80EC08380120644BF21
:10019C00CA685FEA026200D4D0BD428903899A42E0
:1001AC0004D1C86820F08000C860D0BD831893F8D3
:1001BC000E324B60511C6FF3DF214181D0BD40F6F4
:1001CC00F420C2F20000FFF7C8BF1020C4F20000F8
:1001DC000168C90708BF00F00DB841F2C451C2F262
:1001EC0000010A6802F580320A606FF001010160BB
:1001FC0000F000B8F0B503AF2DE9000F40F20C0988
:10020C0041F2C45A41F2F47241F2F87644F2F85BCE
:10021C0040F6104EC4F20009C2F2000AC2F200020B
:10022C000123C2F20006C0F6000BC4F2010E00BF9F
:10023C00EFF3108472B6DAF80010D9F81850D9F828
:10024C000400C0071CBFD9F8185001F5803184F3A5
:10025C00108892F80080B8F1000F58D0A8B2014471
:10026C006FF000454FF0000C03FA0CF010EA080F89
:10027C0014D056F82C40641A002C03DDAC42B8BFE5
:10028C0025460BE0147824EA00005FFA8CF4042C69
:10029C00107003D85BF82C00CEF800000CF1010CA8
:1002AC00BCF1050FE0D10120C8F20000062428445F
:1002BC00C8F20004A042BBD347F230508542A8BF1D
:1002CC000546294488B2C9F828006FF00200C9F825
:1002DC000400D9F8000040F00200C9F80000EFF368
:1002EC00108C72B6DAF80050D9F81800D9F804401E
:1002FC00E4071CBFD9F8180005F5803580B22844F6
:10030C00081A8CF310880228FFF692AF05E0D9F892
:10031C00000020F00200C9F80000BDE8000FF0BD9D
:10032C00B0B502AF40F21440C4F201000168890676
:10033C0040F1FF8020211023016041F2C450C4F22F
:10034C000003EFF3108C72B6C2F20000006859691A
:10035C001A68D20741F2C8521CBF596900F58030A7
:10036C008CF31088C2F20002137889B2002B01447E
:10037C003AD041F2CC50C2F2000002688B1A322BF8
:10038C00C0F0D78048F2A162C0F201029342016032
:10039C0032D341F2D050C2F20000017861B141F683
:1003AC000C02EFF3108172B6C2F20002138843F014
:1003BC004003138081F3108841F2D451C2F2000142
:1003CC0000220A60027040F20000C2F20000FF211D
:1003DC00017041F2D850C2F20000028041F2DA50B2
:1003EC00C2F200000270B0BD0120107041F2CC507E
:1003FC00C2F200000160B0BD41F2DC50C2F200005C
:10040C00016041F2E050C2F20000012241F2D454EA
:10041C000270C2F2000422686AB303EB83009042BC
:10042C0029D941F2DA5CC2F2000C9CF800000128D8
:10043C0033D841F2D05EC2F2000E9EF8000060B1DB
:10044C0041F60C02EFF3108072B6C2F2000215886E
:10045C0045F04005158080F31088DA0040F2000367
:10046C000020C2F20003FF2522608EF800001D70F0
:10047C008CF8000047E041F2DA5CC2F2000CDAB111
:10048C00101D9CF80050A2EBD000FF2D00EB0302D6
:10049C0016D09CF80000431C10E040F20000C2F2A1
:1004AC0000000023037041F2D050C2F2000001257D
:1004BC0005708CF8003026E0DA0000238CF8003050
:1004CC0041F2D0532260C2F200031878D8B140F246
:1004DC000000C2F200000578222D11D300251D70FA
:1004EC00FF23037041F60C03EFF3108072B6C2F2D7
:1004FC0000031D8845F040051D8080F3108802E044
:10050C0003780133037047F25530C0F2CB00B0FBD7
:10051C00F2F042F6E063984238BF034641F2D850FD
:10052C00C2F20000038041F2E150C2F200000078F8
:10053C0000B1B0BD41F2D050C2F2000000780028EA
:10054C00F7D040F20000C2F2000003781BB1037830
:10055C00122B18BFB0BD03780220002B08BF01205E
:10056C0000F004F8BDE8B040FFF744BEF0B503AFAF
:10057C002DE9000741F2D85341F2E456C2F20003D0
:10058C00C2F200061B88B6F8EA51AB4213D2B6F899
:10059C00E861B3421FD241F60C06EFF3108372B63A
:1005AC00C2F2000635884FF0010825F02005358091
:1005BC0083F3108829E041F60C06EFF3108372B632
:1005CC00C2F2000635884FF0000845F02005358052
:1005DC0083F3108819E041F60E03C2F200031E7873
:1005EC0041F60C0586F001061E701B78EFF31086A1
:1005FC0072B6C2F200052C88B3FA83F344F02004DF
:10060C002C8086F310884FEA531840F6104C41F2B8
:10061C00F47EC4F2010CB0F1010A0446C2F2000EE1
:10062C005CF8086C18BF4FF0010A012818BF0324AE
:10063C009EF80050012303FA04F9F30405EA0906B5
:10064C0041D5B8F1000F3ED0002E59D140F2120323
:10065C0040F21405C2F20003C2F20005B3F90030F7
:10066C00B5F9005041F2F8785B1B322BD8BF32231E
:10067C0048F21F555343C5F2EB15A3FB053540F269
:10068C001603C2F2000301EB1521C2F200081E880A
:10069C0048F824109EF8003006F1140443EA0903CC
:1006AC00B4EB152F8EF8003018D24FEA4A00891B94
:1006BC0048F8201001219EF8003001FA00F0184390
:1006CC008EF800001CE0002E65D14FF4003101289B
:1006DC0008BF4FF48031CCF800105CE0012818BF43
:1006EC000220CCF8000041F60C01EFF3108072B63A
:1006FC00C2F200010B8843F002030B8080F31088D8
:10070C0041F60F00C2F200000078002843D140F2FD
:10071C0018009921C2F2000051434CF6CD420088DA
:10072C00CCF6CC42A1FB0221B0EB911F0DD941F6C6
:10073C000C02EFF3108072B6C2F20002138843F081
:10074C000403138080F3108888094FF4806110240F
:10075C00CCF8001041F2C452C4F20004EFF3108143
:10076C0072B6C2F20002126863692668F6071CBFF3
:10077C00636902F5803281F3108899B21044084401
:10078C0041F2F871C2F2000108619EF8000040F0DD
:10079C0010008EF80000BDE80007F0BD80B56F4674
:1007AC0084B041F20000C4F20200016847F68036C2
:1007BC00CFF6E17641F001010160711C0B4600BFE0
:1007CC000268920703D4002B03F10103F8D14268AD
:1007DC000B4622F003024260426812F00C0F03D069
:1007EC00002B03F10103F7D102680B4622F0807253
:1007FC00026000BF0268920103D5002B03F10103D4
:10080C00F8D142F20003C4F2020312221A6048F239
:10081C000042C0F238024260026842F0807202600C
:10082C00324600BF0568AD0102D40132FAD30CE0A8
:10083C004268022565F30102426000BF426802F083
:10084C000C02082A17D00136F8D3426822F00302B2
:10085C00426000BF426812F00C0F03D0002901F176
:10086C000101F7D10168002621F08071016010218F
:10087C004660196000E0012641F6100E41F6140C9A
:10088C0041F61108C2F2000EC2F2000CC2F20008CE
:10089C008EF800608CF8006088F80060836944F280
:1008AC001D2633438361C36940F6000543F40033CE
:1008BC0043F00103C4F20105C361286840F604410A
:1008CC0020F00F0028602868C4F2010120F0F0002D
:1008DC002860286841F2080220F4702028602868FB
:1008EC00C4F2010220F47000286028684FF4000A5A
:1008FC0020F0706028602868012620F07040286085
:10090C00D5F80034022060F30303C5F80034D5F8A1
:10091C0000344FF0000960F30713C5F80034D5F824
:10092C0000344EF2174B60F31B63C5F80034D5F856
:10093C000034CEF2000B60F31F73C5F800340B6863
:10094C00102460F303030B600B6860F307130B6058
:10095C000B6860F30B230B600B6860F30F330B60B9
:10096C000B6860F31F730B606B6860F303036B60C1
:10097C00D5F80034082060F31753C5F800348B68A1
:10098C0043F020038B600B6860F313430B608B68A0
:10099C0043F480538B600B6860F317530B608B68C8
:1009AC0043F400538B600B6860F31B630B608B6824
:1009BC0023F480438B60D1F8003460F31753C1F8F3
:1009CC00003450684FF0807340F4005050604FF486
:1009DC008030C8604FF40030C8604FF08060C86051
:1009EC004FF00060C8604FF00040C8604FF48000CA
:1009FC002B61C860C1F80CA0CB604FF00073CB60CA
:100A0C009EF800300C20002B4FF00703C4F20000BE
:100A1C0018BF3F23C3614FF6FF7303624FF080434F
:100A2C008660C0F8049006601E604EF21003CEF291
:100A3C0000034FF080528BF80540C3F8F0204EF6BF
:100A4C002352CEF20002402111704FF60C4140F2BD
:100A5C000042CFF6FF71C4F20102505866F3071042
:100A6C005050106843F2000140F020001060906874
:100A7C00C4F2000140F020009060D06801F5A05154
:100A8C0020F02000D060202050618BF80040C3F88B
:100A9C00F0A040F2240040F6F42A43F60004C2F21F
:100AAC000000C2F2000AC4F20104CAF8001004608B
:100ABC0069680A2262F3071169606968042666F3A3
:100ACC000B216960296862F30B212960296844F2C3
:100ADC00084266F30F3129609EF80010C4F2000240
:100AEC0000294FF0450118BF4FF40B71A1609CF821
:100AFC00001044F2C02500294FF0450118BF4FF4F7
:100B0C008B71116042F22C01E160516060218BF815
:100B1C000E108BF80F10C3F8F4109EF8001007227B
:100B2C00002941F63F7118BF4FF6FF115960C3F809
:100B3C0008901A6098F80010C0F6000542F20844BC
:100B4C0044F23A1600292946C4F20104C0F6000604
:100B5C0018BF314601F038F998F80000002818BF8A
:100B6C0035465046294601F02FF946F6B650C0F2EC
:100B7C00DB00A0600120C0F21E002060CDF80C90BC
:100B8C00039842F20F71884209D842F2107000BFEC
:100B9C0000BF03990131039103998142F8D3206876
:100BAC0045F6E068CFF6F87840F0080040F60449C6
:100BBC0020604046C4F20109216809070ED50130B6
:100BCC00FAD341F60C01EFF3108072B6C2F20001B9
:100BDC000A8842F008020A8080F31088206840F0EE
:100BEC0004002060404600BF216849070ED5013043
:100BFC00FAD341F60C01EFF3108072B6C2F2000189
:100C0C000A8842F008020A8080F3108844F25424C7
:100C1C0040F22400C0F60004C2F20000214601F0AC
:100C2C00D3F840F6F420C2F20000214601F0CCF8D3
:100C3C0041F2E45147F600420020C2F20001C0F636
:100C4C00000200BF835C0B540130B0F5007FF9D17A
:100C5C006FF0620041F2E45300F16205C2F200034E
:100C6C004FF4FE7141F221021E7885EA062500261A
:100C7C002CB228466D00002C48BF82EA4005072E96
:100C8C0006F10106F4D3013903F10103ECD141F271
:100C9C00E456C2F20006306844F24961B288C5F2EB
:100CAC004561484082F00501F288084382F40071E6
:100CBC000843B6F8FC11AAB251400843B0FA80F4CC
:100CCC0003D1002086F8F70101E002F055F9B6F8DF
:100CDC00EC016109029141F2E4712830C2F2000189
:100CEC000024088000F06BFE0F2C04F10104F9D3F2
:100CFC0040F20200C2F20000008840F20E01C2F283
:100D0C0000010880D9F8040044F2272AC00444BF2B
:100D1C004FF40060C9F80C0040F224044220012575
:100D2C00C0F6000AC2F20004C1B2204601F028F855
:100D3C001AF805000135142DF6D143F6C37940F2AB
:100D4C00240400213020C0F60009C2F2000400BFC8
:100D5C004D1C09EB0106C1B2204601F011F8707868
:100D6C00102D2946F4D140F22404C2F2000420468E
:100D7C002C2101F005F844F27F1044F2720B029919
:100D8C00C0F60000C0F6000B002918BF83462046B1
:100D9C00594601F019F840F6F42542200124C2F21C
:100DAC00000500BFC1B2284600F0EAFF1AF80400A3
:100DBC000134142CF6D140F6F42500213020C2F277
:100DCC00000500BF4C1C09EB0106C1B2284600F01F
:100DDC00D7FF7078102C2146F4D140F6F424C2F2DF
:100DEC00000420462C2100F0CBFF2046594600F091
:100DFC00EBFF43F2000A4CF6CC40C4F2000ACAF8EE
:100E0C00000045F25550CAF80000042040F6044B8F
:100E1C0040F20C0940F22404CAF8040040F271209C
:100E2C00C4F2010BC4F20009C2F20004CAF80800B3
:100E3C00DAF80C00A0B118F10108F9D34AF6AA208F
:100E4C00CAF8000041F60C01EFF3108072B6C2F242
:100E5C0000010A8842F008020A8080F3108803E03F
:100E6C004AF6AA20CAF8000041F2E458C2F200087F
:100E7C004AF6AA20CAF8000040F22000C2F2000094
:100E8C000568204600F0C4FF40F6F420C2F20000D2
:100E9C0000F0BEFF41F2EC70C2F200000068AC46FC
:100EAC00281A0A28C0F07A8241F2EC70C2F20000D3
:100EBC00CDF808C0C0F800C000F081FD41F2D85058
:100ECC00C2F20000B0F800B041F61A00C2F2000005
:100EDC00008841F60C0A834582BF41F61A00C2F223
:100EEC000000A0F800B040F21C00C2F20000B0F903
:100EFC000000C2F2000AB0F1FF3F4CDC41F2E87096
:100F0C00C2F2000044F2665104885846C0F6000153
:100F1C000D2202F02DFF44F2805105464FEA104994
:100F2C002046C0F60001092202F022FFC1B208F1EE
:100F3C00F2024FF01A0C01FB0C21EBB2C5F30725A2
:100F4C0031F9134031F9151044F6D35E091B01FB3E
:100F5C0009F1C1F2620E81FB0E16C0F3072101FBF1
:100F6C000C21000C31F9132031F91510891A01FBF1
:100F7C0009F181FB0E13B11101EBD67121449E11C5
:100F8C0006EBD373521A1A44504380FB0E02901195
:100F9C0000EBD270084440F20401C2F20001BBF530
:100FAC00E17F38BF3220B1F9001040F25332914248
:100FBC001EDB89B201EB41014CF6CD42A1F6F611D4
:100FCC00CCF6CC42A1FB0212EFF3108372B6D1081F
:100FDC00BAF8006046294FF04601B8BFD10846F078
:100FEC001002AAF8002083F31088401A0BE000BF0F
:100FFC00EFF3108172B6BAF8002022F01002AAF8B2
:10100C00002081F310880FFA80FA41F2E870C2F2E6
:10101C00000044F2665104885846C0F600010D22C7
:10102C00BAF5967FA8BF4FF4967A02F0A1FE44F26F
:10103C00805105464FEA10482046C0F600010922AF
:10104C00019402F095FE41F2E45CC2F2000CC1B2D4
:10105C000CF108024FF01A0E01FB0E21EBB2C5F396
:10106C00072531F8134031F8151044F6D359091BF4
:10107C0001FB08F1C1F2620981FB0916C0F30721DB
:10108C0001FB0E21000C31F8132031F81510891AD0
:10109C0001FB08F181FB0913B11101EBD67121445D
:1010AC009E1106EBD373521A1A4402FB00F340F262
:1010BC000400C2F20000B0F90000E046BCF8E0C148
:1010CC006FF06206B04283FB096307DA44F2CE5933
:1010DC0040F2AA55C0F6000936E000BF40F2ED26FA
:1010EC0044F2CE59B042C0F6000902DD4FF47A75D5
:1010FC002AE044F292540026C0F6000404EB4605A4
:10110C00B5F90250854205DA0136052EF6D14FF4B9
:10111C007A7515E044F29E5EC0F6000E0EEB4602A8
:10112C003EF8168034F916605288A0EB060EA2EB3E
:10113C00080404FB0EF4AE1B94FBF6F64644B5B261
:10114C0041F2E458C2F200089E0906EBD37319442D
:10115C0040F20603C2F2000389B2B3F900304FF239
:10116C005552A1EB0C01CFF6FF722AEAEA7A9342B0
:10117C0021EAE1711ADB42F6FE22C0F20402642677
:10118C0003FB062341F63052C1F27912B2FBF3F2A3
:10119C0040F29C46B242A8BF324641F24556C0F2DC
:1011AC000506B34288BF4FF45C7201E04FF47A72CB
:1011BC0040F20E03C2F200031B884FF47A7641F61C
:1011CC0095645E43C0F20B44694344F6D355A6FBC9
:1011DC000464C1F26205A1FB0516B1095143A1FBE0
:1011EC0005122109B1F5876F4FF48761B8BF21094A
:1011FC00B3F53E7F38BF40F2EE2192095143A1FB7B
:10120C00051240F21A01C2F20001098892095143F9
:10121C00A1FB0512B8F8E61192095143A1FB051286
:10122C0022F03F0101EB9211B0F5617F40F2080012
:10123C004FEA0111C2F20000A1FB051305884FEA29
:10124C0092142846C8BF9C0902F05AFD40F21402C1
:10125C00C2F20002A2F800A0B8F8DC21211842F278
:10126C00107040F2A4638142A3EB020240F212031D
:10127C00B8BF0846C2F20003B1F5FA7F4FEAD511A8
:10128C001A8038BF4FF4FA707C2940F21801C2F270
:10129C000001088004D9DDF808C04FF46B7121E01F
:1012AC00DDF808C0002100BF09EB41025288AA42B8
:1012BC0005D201310529F7D140F2DC5112E044F29C
:1012CC00DA56C0F6000606EB410336F8116039F821
:1012DC0011105B886D1A9B1B6B43511A93FBF1F138
:1012EC00314489B2B8F8DE2144F23F26514344F62A
:1012FC00D352C1F26202A1FB02239A09C0F20F067B
:10130C0040F628250136AA4240F62822B8BF9A0991
:10131C00B14240F21601C2F2000138BF4FF47A72AA
:10132C000A80019BBBF5E16F08D90F2B06D240F662
:10133C00044B0121C4F2010B18E000BF40F6044B32
:10134C00C4F2010BDBF80410C90401D401210DE037
:10135C0041F60C01C2F20001098840F2B632934208
:10136C004FF0000288BF012202EAD10141F60F02C0
:10137C00C2F20002117041F62801C2F20001A1F87C
:10138C0000A041F62A0140F20C0943F2000AC2F215
:10139C000001C4F20009C4F2000A088041F2E051D5
:1013AC00EFF3108072B6C2F2000141F2C452097818
:1013BC00EFF3108372B6C2F200021268D9F818600B
:1013CC00D9F804500C46ED071CBFD9F8186002F58B
:1013DC00803283F31088B3B241F2DC56C2F20006BD
:1013EC0036681A44921B002918BF012440D044F2DD
:1013FC003F23C0F20F039A423AD941F2E051002444
:10140C00C2F200010C7041F2D851C2F200010D88F9
:10141C0041F2D051C2F200010E7841F2E152C2F217
:10142C00000280F310881078052800F05F81107896
:10143C00062800F05B8141F20800C4F2010041F67D
:10144C000C030268EFF3108072B6C2F20003198825
:10145C00920400F17A8041F08001198080F31088A9
:10146C0040F60000C4F201004FF08071016139E1D7
:10147C0041F2D853C2F200031D8841F2D053C2F29C
:10148C0000031E780029C8D04DF29101C0F203016F
:10149C008A4241F2E152C2F20002C2D356EA05017D
:1014AC004FF0000500F0928041F2D051C2F20001E1
:1014BC000D7041F2D851C2F200010D8040F20001D2
:1014CC00C2F20001FF220A7041F2D451C2F20001B3
:1014DC000D6041F2C851C2F200010D7041F2DA51B7
:1014EC00C2F200010D7080F3108841F60C02EFF38C
:1014FC00108072B6C2F200021188012441F0400142
:10150C00118041F2F47180F31088C2F20001EFF304
:10151C00108072B60D70D9F8001041F2E15221F032
:10152C000201C9F800104FF48031CBF80C104FF4C5
:10153C000031CBF80C104FF08061CBF80C10C2F2DC
:10154C00000280F3108800266DE721F080011980DD
:10155C0080F3108840F60000C4F201004FF4807153
:10156C00016141F62C00C2F20000006841F2E15228
:10157C00ACEB00000428C2F20002C0F0B78041F6C8
:10158C001800C2F200000078002841F62C00C2F2CC
:10159C000000C0F800C02FD141F2E470C2F200008C
:1015AC000088B0B14FF0FF30CDF808C002F022FC3B
:1015BC0041F2E471C2F200010888DDF808C041F282
:1015CC00E1520138C2F2000208808FE001240026AB
:1015DC0027E741F618010120C2F2000141F6300361
:1015EC0008700021C2F20003B8F8EE01198041F630
:1015FC003201C2F20001088041F63401C2F200014E
:10160C000868ACEB0000312807D9C1F800C0DBF842
:10161C000400C00407D400204BE041F63200C2F2B3
:10162C00000000884AE06808E02802D8B8F8EE010B
:10163C003FE041F2E870C2F2000000881E28EAD2B6
:10164C0040F20400C2F20000B0F900004FF47A61DD
:10165C0048F21F52A1EBC000C5F2EB1280FB020155
:10166C00B8F8F201401B80FB0202481100EBD1706C
:10167C0032213228A8BF0846D11001EBD2712D2996
:10168C00A8BF2D21B8F8F02120EAE07011F1140F59
:10169C00D8BF6FF013010244B8F8EC01114441F2C9
:1016AC00E152C2F200028142B8BF0846002948BF8D
:1016BC00002041F63201C2F20001088041F63001EF
:1016CC00C2F20001B1F9001000B2814201DA01202E
:1016DC0002E00BDD4FF0FF30CDF808C002F08AFBC2
:1016EC00DDF808C041F2E152C2F20002107807287E
:1016FC0071D0B5F5E17F2DD366B398F8F60148BBF0
:10170C00DBF80400C00425D540F20800C2F200004A
:10171C00008842F2283188421CD344F27501884279
:10172C0018D241F63C00C2F20000006830B941F614
:10173C003C00C2F20000C0F800C06046ACEB0001F7
:10174C0098F8F5010A097C2A12D8142810D914200B
:10175C0026E000BF41F615010020C2F2000108701E
:10176C0041F63C01C2F2000108604FF0004030E04D
:10177C0041F65732914213D847F66012CFF6FE72FB
:10178C00322301FB032141F25972CDF2B712A1FBB6
:10179C000212142101EB1231C9B2884228BF08464B
:1017AC0048F21F51C5F2EB11ACFB01125109642236
:1017BC0001FB12C141F61502C2F20002107041F297
:1017CC00E15281424FF00040C2F2000238BF4FF4A8
:1017DC000040CBF80C00DBF804101078C9042BD4B3
:1017EC0040B10120644601F057F941F2E152A446A0
:1017FC00C2F200024FF0006041F2F473CBF80C001F
:10180C000021C2F20003EFF3108072B61970D9F800
:10181C00001021F00201C9F800104FF48031CBF810
:10182C000C104FF40031CBF80C104FF08061CBF85A
:10183C000C1080F3108812E0012810D04FEA1C1015
:10184C007C284FF0000088BF012084F00101084281
:10185C0014BF4FF000604FF40060CBF80C00107810
:10186C0040F22404C2F2000408B3DBF8041089042B
:10187C0018D441F2D851C2F20001098891B941F251
:10188C00D051C2F20001097861B9DBF80410C90427
:10189C0008D541F61C01C2F200010968BCEB01013C
:1018AC003FD400BF0120654601F0F6F8AC4640F28B
:1018BC001000C2F20000007800283FF4D9AA41F2CF
:1018CC00F071C2F2000109684FF47A72B2FBF0F0C9
:1018DC00ACEB01018142FFF4CBAA41F2F070C2F2F1
:1018EC000000C0F800C060892189C943084410F485
:1018FC00E06F02D0204601F02BF940F6F421C2F241
:10190C00000148890989C943084410F4E06F3FF489
:10191C00AFAA40F6F420C2F2000001F019F9FFF76B
:10192C00A7BA072804D001281BD14FF4006015E09A
:10193C0048F21F50C5F2EB10ACFB000148096421C2
:10194C0000FB11C041F61501C2F20001142213284C
:10195C004FF400400A7088BF4FF00040CBF80C00E9
:10196C00A5E7411F0129A2D841F62001C2F20001CE
:10197C00098800299BD041F62401C2F200010968B4
:10198C00BCEB010193D441F624020CF10501C2F227
:10199C00000205284FF0FF30116008BF012065469A
:1019AC0002F028FA41F62002C2F200021088AC467E
:1019BC000138010410807FF47AAF012074E7F0B590
:1019CC0003AF2DE9000F85B0002001F04DFB05465B
:1019DC000090012001F048FB0646042001F044FB76
:1019EC000446052001F040FB8146062001F03CFB3B
:1019FC008046072001F038FB40F6E4411122714388
:101A0C00C1F20102A1FB0212120A02EB420202967F
:101A1C005208132641F2E453724342F21C56C2F2AE
:101A2C000003921B46F26766B3F8E411B3F8E23197
:101A3C00C6F2666682FB0626C91AEA1A4FF47A7356
:101A4C005029D8BF50215A4392FBF1F18346B1F58E
:101A5C007A7FB8BF0B4623EAE3700190701100EB5C
:101A6C00D670C830B0F5966F824644F2DE41A8BFFE
:101A7C004FF4966A6428C0F60001204638BF4FF038
:101A8C00640A039401F016FB44F222510446C0F69A
:101A9C0000014846CDF8109001F00CFB4DF6C461E6
:101AAC00C0F2020149F6672208FB01F1CCF6D942DB
:101ABC00A1FB021840F20401C2F20001B1F900C00E
:101ACC004AF6AB26A4EB0C01C2F6AA2681FB06153E
:101ADC0040F20601C2F20001B1F9004040F2080EDA
:101AEC00C2F2000E001BBEF8003080FB0601C3EBF7
:101AFC00D83080FB060840F6E44011220BFB00F0C6
:101B0C00C1F20102A0FB020B40F20200C2F2000083
:101B1C000688AAEB060A4FEAEA790AEB597241F2F7
:101B2C00E87A06EBD202C2F2000A0280BAF8000090
:101B3C00019ADDF80090121A02EB927200EB9200FF
:101B4C00AAF80000680800EBD57040F2040241F2DC
:101B5C00E6766044C2F20002C2F200061080480829
:101B6C00A6F8009041F2E45600EBD17040F2060169
:101B7C00C2F200062044C2F20001088008EBD870C3
:101B8C0096F8F6111844AEF800004FEA1B20E1B3AA
:101B9C0000EB4000410841F28832914240F20A01C8
:101BAC00C2F200010B88B8BF4208D01A46F2676235
:101BBC00C6F2666280FB0202901000EBD270B6F89F
:101BCC00FA21B6F8F8611844921B83B292B241F232
:101BDC0059755A43CDF2B715A2FB052541F2573280
:101BEC009A1A4EF6DB43088041F2EA71CFF6FF7386
:101BFC0006EB1530C2F200019A42088029D381B25B
:101C0C00B1F5757F39D2FF2049E040F20A01C2F2EA
:101C1C0000010A8846F26763801AC6F2666380FB8D
:101C2C000303981000EBD3701044088041F2EA7162
:101C3C00C2F2000100220A8041F2D851C2F2000126
:101C4C00098831B141F61501C2F200010978322937
:101C5C0019D240F20C00C2F200000221017041F6D0
:101C6C000C01EFF3108072B6C2F200010A8842F444
:101C7C0080720A8080F3108823E00020B1F57F7F0A
:101C8C0088BF01200BE081B2782901D2012006E047
:101C9C0040F2EE220020914288BF4FF0FF3040F21C
:101CAC000C01C2F20001087041F60C01EFF3108038
:101CBC0072B6C2F200010A8822F480720A8080F3A4
:101CCC0010884FF21E01A9F6F170CFF6FF71884211
:101CDC000498DDE9022128BF0F2A0DD241F60C0130
:101CEC00EFF3108072B6C2F200010A8842F00802CB
:101CFC000A8080F310880CE0B2F57F6FEED80F29C4
:101D0C00ECD3B1F57F6FE9D80F28E7D3B0F57F6F2F
:101D1C00E4D841F61601C2F20001BAF800000A88B4
:101D2C00861A40F21A02C2F2000213880D2E0DDB45
:101D3C0006EB860603EB560640F246539E42B8BFAE
:101D4C003346B6F57A7F38BF4FF47A734FF240665C
:101D5C009BB2CFF6F1764FF4667503FB056344F640
:101D6C00D356C1F26206A3FB06364FF47A7303EB2B
:101D7C0096131380088005B0BDE8000FF0BDD4D4D5
:101D8C0080B56F46B0F808C04EF280520CF1010ECF
:101D9C006FF3DF2ECFF6F97243899E4503D10132E2
:101DAC0028BF80BDF8E700EB0C0282F80E12A0F8F9
:101DBC0008E0EFF3108172B60068C26842F080024E
:101DCC00C26081F3108880BDF0B503AF4DF8048D6F
:101DDC000A78044642B14D1CD1B22046FFF7D0FF21
:101DEC0015F8012B002AF7D144F2031800210D201D
:101DFC00C0F600084E1C08EB0105C1B22046FFF7E7
:101E0C00BFFF6878022E3146F4D15DF8048BF0BD2B
:101E1C00F0B503AF2DE9000F87B08346C088BBF83F
:101E2C000410884200F04D8544F2E3250026C0F6EC
:101E3C00000500BFBBF806005844807BBBF80610B9
:101E4C000D2801F101016FF35F21ABF8061001D0F1
:101E5C000A2803D1BBF80C0090B119E0BBF80C10A8
:101E6C00BE2906D84A1C5944ABF80C2081F80E0A3E
:101E7C0006E058462946ABF80C60FFF7A5FF00BFFB
:101E8C00BBF80600BBF804108842D3D100F019BD92
:101E9C009BF80E3A0BF60E254FF0000A002B05F8B6
:101EAC0000A000F00C8501A9002228460135202B4A
:101EBC0002D110F8013FF9E78BB1561C41F8220012
:101ECC0015F8010C60B1202801D00135F8E72B780A
:101EDC0005F801AC23B1052A3246E6D300E01646DC
:101EEC00F3B2002B00F0EB84019991F800C0BCF127
:101EFC00000F0ED044F27B024E1CC0F6000260466E
:101F0C001578A8420BD116F8010B01320028F7D135
:101F1C0003E044F27B02C0F600021078B0B3BCF1CF
:101F2C00000F0ED044F28F264A1CC0F60006604605
:101F3C003578A8425DD112F8010B01360028F7D193
:101F4C0003E044F28F26C0F600065A1E18BF012289
:101F5C00012B51D0307800284ED1DDF808C09CF808
:101F6C000060002E00F0D88044F293220CF10103A3
:101F7C00C0F60002304600BF1578A84240F0D4806D
:101F8C0013F8010B01320028F6D1C9E043F669764B
:101F9C004F200125C0F60006C1B25846FFF7F0FEEF
:101FAC00705D0135122DF7D143F6C3780021302036
:101FBC00C0F600084E1C08EB0105C1B25846FFF7ED
:101FCC00DFFE6878102E3146F4D144F2031800215C
:101FDC000D20C0F6000800BF4E1C08EB0105C1B275
:101FEC005846FFF7CDFE6878022E3146F4D100F04A
:101FFC0066BC5A1E18BF0122BCF1000F0FD044F270
:10200C0012164D1CC0F60006604600BF3478A04284
:10201C000BD115F8010B01360028F7D103E044F27F
:10202C001216C0F60006307858B3BCF1000F0ED073
:10203C0043F6B2734E1CC0F6000360461D78A842EE
:10204C000CD116F8010B01330028F7D103E043F64D
:10205C00B273C0F600031878002877D0BCF1000FDB
:10206C0040D044F272034E1CC0F60003604600BF21
:10207C001D78A8423ED116F8010B01330028F7D188
:10208C0034E040F60840C4F201000068800400F11E
:10209C000F8441F2D850C2F200000088002840F0B2
:1020AC00078441F2D050C2F200000078002840F0C2
:1020BC00FF83052BC0F06184029E3578002D00F063
:1020CC00408444F29D10711CC0F600002A4604782E
:1020DC00A24240F03C8411F8012B0130002AF6D1C9
:1020EC0000F033BC44F27203C0F6000318780028E9
:1020FC0000F0A680BCF1000F6ED044F2B4234E1C4D
:10210C00C0F6000360461D78A8426DD116F8010B8D
:10211C0001330028F7D163E044F29322C0F60002A9
:10212C001078002800F0AB80002E6FD044F23B22D8
:10213C000CF10103C0F6000230461578A8426DD1AF
:10214C0013F8010B01320028F7D163E040F6084583
:10215C00C4F201052868800400F1AA8341F2D8502A
:10216C00C2F200000088002840F0A28341F2D05057
:10217C00C2F200000078002840F09A8341F2E1504E
:10218C00C2F20000007810B1012000F085FC41F291
:10219C00F471C2F200010022EFF3108072B60A70E3
:1021AC000C21C4F200010A6822F002020A604FF40A
:1021BC008031A9604FF40031A9604FF08061A960B3
:1021CC0080F3108801F0D4FA002800F0B58344F2B3
:1021DC00C601C0F600016FE344F2B423C0F600035D
:1021EC001878002800F0A380BCF1000F4BD044F20B
:1021FC00DF034E1CC0F6000360461D78A84262D176
:10220C0016F8010B01330028F7D140E044F23B22D1
:10221C00C0F600021078002800F0B980002E66D0BD
:10222C0044F25C020CF10103C0F600023046157852
:10223C00A84264D113F8010B01320028F7D15AE0FF
:10224C0040F60840C4F201000068800400F13083BD
:10225C0041F2D850C2F200000088002840F02883D8
:10226C0041F2D050C2F200000078002840F02083E8
:10227C0000F082FE44F2CF01C0F600011CE3584688
:10228C0000F066FC1BE344F2DF03C0F60003187891
:10229C0082F00103002818BF0120184313D1029DBE
:1022AC002A78002A00F0EB8244F25910691CC0F61F
:1022BC00000003789A4240F0E88211F8012B0130BB
:1022CC00002AF6D1DFE2BCF1000F00F0508144F29D
:1022DC00B7034E1CC0F6000360461D78A84240F0C0
:1022EC00608116F8010B01330028F6D143E144F26A
:1022FC005C02C0F600021078002800F0668144F2FF
:10230C009A25002EC0F6000500F0198144F29A229D
:10231C000CF10103C0F6000230461178884240F0FF
:10232C00138113F8010B01320028F6D108E140F6B5
:10233C000840C4F201000068800400F1B98241F247
:10234C00D850C2F200000088002840F0B18241F25F
:10235C00D050C2F200000078002840F0A98241F26F
:10236C00E45241F61800C2F20002C2F20000002151
:10237C00B2F8EC21017041F2E47102F12800C2F2D2
:10238C000001088043F68F71C0F6000194E25846B4
:10239C005221FFF7F5FC44F266590026C0F60009FD
:1023AC0039F8165058462C21FFF7EAFC58462946B6
:1023BC0001F0E2FB01360D2EF2D144F2BC260D20C9
:1023CC000125C0F60006C1B25846FFF7D9FC705D76
:1023DC000135042DF7D144F280590026C0F60009CE
:1023EC0039F8165058462C21FFF7CAFC5846294696
:1023FC0001F0C2FB0136092EF2D144F20314002184
:10240C000D20C0F600044D1C6618C1B25846FFF7EB
:10241C00B7FC7078022D2946F5D141F2E450C2F296
:10242C00000044F2800A00F108090024C0F6000AFA
:10243C00002146204E1C0AEB0105C1B25846FFF79D
:10244C009FFC6878022E3146F4D158462146009400
:10245C0001F092FB4FF0000839F8186058462C2117
:10246C00FFF78EFC5846314601F086FB08F1010857
:10247C00B8F10D0FF0D144F2031400210D20C0F679
:10248C00000400BF4D1C6618C1B25846FFF778FC1B
:10249C007078022D2946F5D1009C09F11A090134F6
:1024AC00092CC5D141F2E450C2F2000043F6B77AD0
:1024BC0044F2031400F1F2084FF00009C0F6000AD0
:1024CC00C0F60004002149204D1C0AEB0106C1B2E4
:1024DC005846FFF755FC7078022D2946F4D1584622
:1024EC00494601F049FB002538F9156058462C2166
:1024FC00FFF746FC5846314601F070FB01350D2DB7
:10250C00F2D100210D2000BF4D1C6618C1B25846F7
:10251C00FFF736FC7078022D2946F5D109F1010937
:10252C00B9F1090F08F11A08CCD144F2DF11C0F649
:10253C0000015846FFF748FC4FF0000ABFE12A465D
:10254C001078002800F0FD80002E00F0ED8044F2A1
:10255C0098110CF10102C0F600010878864240F097
:10256C00EB8012F8016B0131002EF6D1E0E044F261
:10257C00B703C0F60003187882F00102002818BFD8
:10258C00012010430DD1029800F0C4FD1428A8BFFF
:10259C00142040F2100120EAE070C2F20001087031
:1025AC00A4E1BCF1000F00F05A814A1C44F27D21D9
:1025BC00C0F600010878844540F0578112F801CB31
:1025CC000131BCF1000FF5D14DE141F2E455C2F2FD
:1025DC000005B5F9DC2143F6D471C0F6000158466C
:1025EC0001F00EFBB5F8DE2144F20D21C0F600011E
:1025FC00584601F005FBB5F8E02143F69D71C0F695
:10260C000001584601F0FCFAB5F8E22144F25E11E3
:10261C00C0F60001584601F0F3FAB5F8E42144F293
:10262C00E311C0F60001584601F0EAFAB5F8E621CC
:10263C0044F28301C0F60001584601F0E1FAB5F806
:10264C00E82144F29701C0F60001584601F0D8FA8F
:10265C00B5F8EA2144F26A11C0F60001584601F0BF
:10266C00CFFAB5F8EC2144F2F501C0F6000158465A
:10267C0001F0C6FAB5F8EE2144F2EF11C0F60001F4
:10268C00584601F0BDFAB5F8F02144F2A211C0F69B
:10269C000001584601F0B4FAB5F8F22144F2B01139
:1026AC00C0F60001584601F0ABFA95F9F42144F25A
:1026BC00FF11C0F60001584601F0A2FA95F8F52179
:1026CC0044F28511C0F60001584601F099FA95F8CC
:1026DC00F62144F20231C0F60001584601F090FA9E
:1026EC00B5F8F82144F2BF11C0F60001584601F0CC
:1026FC0087FAB5F8FA2144F21611C0F600015846D3
:10270C0001F07EFA40F21C00C2F20000B0F9002089
:10271C0044F21621C0F60001584601F071FA44F259
:10272C00DF11C0F60001C7E044F29811C0F60001B9
:10273C000878002800F09E8044F20611C0F60001D3
:10274C00BAE043200126C1B25846FFF719FBA85D39
:10275C000136042EF7D141F2E459C2F2000909F115
:10276C00080E4FF0EA0C4FF6FF7441F221024FF6BF
:10277C00FF739EF8005083EA0523002518B2194612
:10278C005B00002848BF82EA4103072D05F10105D3
:10279C00F4D3BCF1010C0EF1010EEAD158462C21F8
:1027AC009DB2FFF7EDFA5846294601F0E5F909F11B
:1027BC00F20E4FF0EA0C41F221024FF6FF739EF835
:1027CC00005083EA0523002518B219465B00002847
:1027DC0048BF82EA4103072D05F10105F4D3BCF192
:1027EC00010C0EF1010EEAD158462C219DB2FFF7D7
:1027FC00C7FA5846294601F0BFF909F5EE702021B9
:10280C0041F22102037884EA0324002325B22646F0
:10281C006400002D48BF82EA4604072B03F1010334
:10282C00F4D3013900F10100ECD158462C21A5B2AA
:10283C00FFF7A6FA5846294601F09EF944F2031513
:10284C0000210D20C0F600054C1C6E18C1B2584674
:10285C00FFF796FA7078022C2146F5D12FE044F25E
:10286C007D21C0F60001087878B344F24021C0F60F
:10287C00000121E043F6F171C0F600011CE044F2C6
:10288C005910C0F600000078A8B340F60840C4F216
:10289C000100006880040BD441F2D850C2F2000051
:1028AC00008828B941F2D050C2F20000007850B331
:1028BC0044F2E401C0F600015846FFF785FAABF884
:1028CC000CA007B0BDE8000FF0BD41F60C01EFF312
:1028DC00108072B6C2F200010A8800220A8080F3CE
:1028EC00108841F61A00C2F20000028044F2C301C3
:1028FC00C0F60001E0E7012000F0CEF844F27021B0
:10290C00C0F60001D8E7284600F0D4FF002877D0A5
:10291C0044F2630800214F20C0F600084C1C08EB61
:10292C000106C1B25846FFF72BFA7078082C2146E5
:10293C00F4D158462946C0E743F68571C0F600012C
:10294C00BAE744F29D10C0F60000007840B375B1B0
:10295C0044F26C20711CC0F600002A460478A24296
:10296C000BD111F8012B0130002AF7D103E044F20E
:10297C006C20C0F60000007890B1042B3BD3029879
:10298C00027892B3411C44F2D910C0F600000378CF
:10299C009A4230D111F8012B0130002AF7D128E0EE
:1029AC00039800F0B7FB04998146084600F0B2FB8F
:1029BC0005998246084600F0ADFBB9F1080F24D802
:1029CC00BAF1000F21D4BAF10D0F1EDA95B344F20F
:1029DC009D11721CC0F600010B789D4230D112F88B
:1029EC00015B0131002DF7D128E044F2D910C0F67B
:1029FC000000007870B144F2AB01C0F600015BE757
:102A0C0044F2F521C0F6000156E743F67B71C0F69F
:102A1C0000018EE5DDE9035000F07CFB0146284601
:102A2C0000F09AFB00287FF461AF44F29E21C0F6BF
:102A3C00000141E744F29D11C0F60001097891B103
:102A4C0041F2E451C2F200011A2209FB0211B0F565
:102A5C00967FA8BF4FF4967020EAE07001EB4A0114
:102A6C00A1F8F20013E042F210718842B8BF01469F
:102A7C0041F2E450C2F200001A2209FB0200B1F547
:102A8C00FA7F00EB4A00D8BF4FF4FA71018144F28F
:102A9C00C301C0F600014CE5B0B502AF41F2E15202
:102AAC00C2F20002002141F2F47315781170C2F2E7
:102ABC000003EFF3108272B619700C23C4F20003FA
:102ACC001C6824F002041C6040F61043C4F201039D
:102ADC004FF480341C604FF400341C604FF0806461
:102AEC001C6082F310884FF000621A604FF00042B5
:102AFC001A6041F61502C2F2000211704FF4800206
:102B0C001A604FF400021A604FF080724FF000749C
:102B1C001A601C604FF60044CFF6FF741A5141F650
:102B2C002002C2F20002118080B17DB140F224007B
:102B3C00C2F20000294601F0B3F940F6F420C2F2CB
:102B4C0000002946BDE8B04001F0AAB9B0BDD4D40C
:102B5C00F0B503AF2DE9000F81B040F6084A5421BF
:102B6C008146C4F2010AFFF70BF941F2D858C2F2C0
:102B7C000008B8F8005048462C21FFF701F94846E8
:102B8C00294600F0F9FF41F2E870C2F20000058816
:102B9C0048462C21FFF7F4F84846294600F0ECFF94
:102BAC0040F20200C2F20000058848462C21FFF7D3
:102BBC00E7F84846294600F0DFFF40F20400C2F275
:102BCC000000B0F9005048462C21FFF7D9F84846D0
:102BDC00294601F003F840F20600C2F20000B0F9F9
:102BEC00005048462C21FFF7CBF84846294600F008
:102BFC00F5FF40F20804C2F20004258848462C2157
:102C0C00FFF7BEF84846294600F0B6FF40F20A002E
:102C1C00C2F20000058848462C21FFF7B1F848465F
:102C2C00294600F0A9FF41F2EA70C2F200000588C3
:102C3C0048462C21FFF7A4F84846294600F09CFF93
:102C4C0040F20C00C2F2000090F9005048462C21D2
:102C5C00FFF796F84846294600F0C0FF41F62A0BCC
:102C6C00C2F2000BBBF8005048462C21FFF788F845
:102C7C004846294600F080FF41F62800C2F20000C9
:102C8C00B0F9005048462C21FFF77AF848462946FF
:102C9C0000F0A4FF41F2D056C2F200063578484647
:102CAC002C21FFF76DF84846294600F065FF41F6E8
:102CBC000C00C2F20000058848462C21FFF760F892
:102CCC004846294600F058FFDAF800002C21C0F3E2
:102CDC0080354846FFF754F84846294600F04CFF2B
:102CEC00DAF80000800404D4B8F80000002800F0E2
:102CFC003D81002548462C21FFF742F848462946DD
:102D0C0000F03AFF41F61A00C2F20000058848466E
:102D1C002C21FFF735F84846294600F02DFF41F6E7
:102D2C003000C2F20000B0F9005048462C21FFF7E9
:102D3C0027F84846294600F051FF41F63200C2F20E
:102D4C000000B0F9005048462C21FFF719F848460E
:102D5C00294600F043FF41F61500C2F20000057849
:102D6C0048462C21FFF70CF84846294600F004FF92
:102D7C00B8F80050BDB12088BBF8006000F0C0FF6F
:102D8C00864210D94CF28031C0F2C911B1FBF5F179
:102D9C00301A4FF47A756843B0FBF1F0B0F57A7FD6
:102DAC00B8BF054600E0002548462C21FEF7E8FF99
:102DBC004846294600F0E0FE48462C21FEF7E0FF8D
:102DCC0048460021002400F0D7FE41F2E150C2F247
:102DDC000000057848462C21FEF7D2FF48462946CC
:102DEC0000F0CAFEDAF80000012121EA103548464D
:102DFC002C21FEF7C5FF4846294600F0BDFE40F2E7
:102E0C002000C2F20000056848462C21FEF7B8FFEE
:102E1C004846294600F0B0FE41F2E670C2F20000CE
:102E2C00058848462C21FEF7ABFF4846294600F0A2
:102E3C00A3FE40F20E00C2F20000058848462C2189
:102E4C00FEF79EFF4846294600F096FE40F216001B
:102E5C00C2F20000058848462C21FEF791FF484637
:102E6C00294600F089FE40F21A00C2F200000588E3
:102E7C0048462C21FEF784FF4846294600F07CFE8C
:102E8C0041F2D450C2F2000000682C210430C50875
:102E9C004846FEF775FF4846294600F06DFE40F2A5
:102EAC000000C2F20000057848462C21FEF768FFAE
:102EBC004846294600F060FE41F60F00C2F20000C1
:102ECC00057848462C21FEF75BFF4846294600F062
:102EDC0053FE41F61100C2F20000057848462C2141
:102EEC00FEF74EFF4846294600F046FEDAF8000091
:102EFC00DAF8001000F0010001F002010844DAF8E1
:102F0C000010042202EA11210844DAF80010082209
:102F1C0002EA11210844DAF80010102202EAD12149
:102F2C0008444FF60041CFF6FF715AF801102022E9
:102F3C0002EAD101451848462C21FEF721FF4846EC
:102F4C00294600F019FE44F203150D20C0F60005C9
:102F5C00C1B24846661C2C44FEF712FF6078022E64
:102F6C003446F5D101B0BDE8000FF0BD3078B0FAB1
:102F7C0080F04509BEE6D4D441F2E45C0020C2F2F4
:102F8C00000C00210CF801000131B1F5007FF9D1E2
:102F9C0044F249600521C5F24560C0F20021CCE93C
:102FAC00000144F20A310020C0F600010CEB0002D3
:102FBC000B5C0130EA281372F8D144F2F431002092
:102FCC00C0F600010CEB00020B5C0130EA2882F821
:102FDC00F230F7D1B0B502AF4FF4C860ACF8DE01F7
:102FEC0040F28A20C0F2A41040F6886141F690228B
:102FFC00B42340F21E0E0CF5F074C0F2E831C1F6A9
:10300C005832C0F25A03C0F24C4E84E80F4044F2DE
:10301C000160ACF8F40100208CF8F60140F2BC2001
:10302C00C0F21450CCF8F8014FF6FF714FF4FE7E4D
:10303C0041F22103604600BF027881EA022100229E
:10304C000DB20C464900002D48BF83EA4401072A03
:10305C0002F10102F4D3BEF1010E00F10100EBD13B
:10306C00ACF8FC11B0BDD4D442F20041C4F2010161
:10307C00486300200860886840F48000886047F648
:10308C006010CFF6FE7000BF0A6892070ED40130B4
:10309C00FAD341F60C02EFF3108072B6C2F20002C2
:1030AC00138843F00803138080F31088C86C80B237
:1030BC007047D4D40A88824215D9B1F84020824294
:1030CC0013D280B56F46002231F822C0844505D357
:1030DC0001EB820EBEF80430834209D90132102A6A
:1030EC00F2D1C82011E0488811E0B1F842000EE09E
:1030FC00ACEB0301BEF90220BEF90630ACEB0000CC
:10310C009B1A584390FBF1F01044BDE8804000B28C
:10311C007047D4D490F800C0ACF12D02B2FA82F210
:10312C005309C25CA2F1300109290FD81844431C81
:10313C00002000BF00EB800002EB400013F8012BD5
:10314C003038A2F130010A29F4D300E00020BCF1A0
:10315C002D0F08BF40427047D0B502AF90F800C0A9
:10316C00BCF1000F0FD043F6D47300F1010EC0F682
:10317C00000362461C78A2420BD11EF8012B0133CE
:10318C00002AF7D103E043F6D473C0F600031A7893
:10319C006AB3BCF1000F10D044F20D2300F1010E04
:1031AC00C0F60003624600BF1C78A2420BD11EF889
:1031BC00012B0133002AF7D103E044F20D23C0F6B2
:1031CC0000031A78EAB3BCF1000F1FD043F69D73CD
:1031DC0000F1010EC0F60003624600BF1C78A2424B
:1031EC001BD11EF8012B0133002AF7D112E041F25A
:1031FC00E4506429A8BF6421C2F2000011F1640FED
:10320C00D8BF6FF06301A0F8DC11AEE243F69D73FA
:10321C00C0F600031A78002A3FD0BCF1000F21D071
:10322C0044F25E1300F1010EC0F60003624600BFCB
:10323C001C78A2421DD11EF8012B0133002AF7D1B4
:10324C0014E040F628208142B8BF084641F2E45110
:10325C00C2F20001B0F57A7FD8BF4FF47A70A1F8B2
:10326C00DE0182E244F25E13C0F600031A78002AF3
:10327C003DD0BCF1000F21D044F2E31300F1010E5C
:10328C00C0F60003624600BF1C78A2421CD11EF897
:10329C00012B0133002AF7D114E040F6980081424B
:1032AC00B8BF084641F2E451C2F20001B0F5E17F2B
:1032BC00D8BF4FF4E170A1F8E00156E244F2E313F9
:1032CC00C0F600031A78D2B3BCF1000F1DD044F243
:1032DC00830300F1010EC0F6000362461C78A24283
:1032EC001AD11EF8012B0133002AF7D111E040F658
:1032FC00AC508142B8BF084641F2E45120EAE0707C
:10330C00C2F20001A1F8E2012FE244F28303C0F6FD
:10331C0000031A78002A3ED0BCF1000F20D044F2F2
:10332C00970300F1010EC0F6000362461C78A2421E
:10333C001DD11EF8012B0133002AF7D114E040F601
:10334C00FF708142B8BF084641F2E451C2F200015D
:10335C00B0F5C87FD8BF4FF4C870A1F8E40104E2FF
:10336C0044F29703C0F600031A78002A3FD0BCF150
:10337C00000F21D044F26A1300F1010EC0F60003D5
:10338C00624600BF1C78A2421DD11EF8012B0133EE
:10339C00002AF7D114E040F214508142B8BF08461D
:1033AC0041F2E451C2F20001B0F52F7FD8BF4FF4C7
:1033BC002F70A1F8E601D8E144F26A13C0F60003BD
:1033CC001A78002A47D0BCF1000F2AD044F2F5033A
:1033DC0000F1010EC0F60003624600BF1C78A24249
:1033EC0026D11EF8012B0133002AF7D11DE042F241
:1033FC0034129142B8BF0A4641F27C508242D8BF87
:10340C00024641F2E450C2F20000B0F8EA3102F197
:10341C0064019942A0F8E82140F2A781A0F8EA11D2
:10342C00A3E144F2F503C0F600031A78002A46D053
:10343C00BCF1000F28D044F2EF1300F1010EC0F6DE
:10344C00000362461C78A24225D11EF8012B0133E1
:10345C00002AF7D11CE041F2E45042F22832C2F2C9
:10346C0000009142B8BF0A46B0F8E83141F244611D
:10347C008A42D8BF0A4603F164018A42A0F8EA21C5
:10348C0038BFA0F8EA1170E144F2EF13C0F6000364
:10349C001A78002A49D0BCF1000F2CD044F2A213A8
:1034AC0000F1010EC0F60003624600BF1C78A24278
:1034BC0027D11EF8012B0133002AF7D11FE041F26E
:1034CC00E450C2F20000B1F5967FA8BF4FF496719C
:1034DC00B0F8EE213C29D8BF3C219142A0F8EC1168
:1034EC0038BFA0F8EE11B0F8F0218BB29A4288BF29
:1034FC00A0F8F01139E144F2A213C0F600031A78D7
:10350C00DAB3BCF1000F1FD044F2B01300F1010E7E
:10351C00C0F60003624600BF1C78A2421AD11EF806
:10352C00012B0133002AF7D112E041F2E450C2F230
:10353C000000B0F8EC219142B8BF0A46002948BF00
:10354C000022A0F8EE2110E144F2B013C0F6000303
:10355C001A78D2B3BCF1000F1ED044F2FF1300F165
:10356C00010EC0F6000362461C78A2421AD11EF866
:10357C00012B0133002AF7D112E041F2E450C2F2E0
:10358C000000B0F8EC219142B8BF0A46002948BFB0
:10359C000022A0F8F021E8E044F2FF13C0F600038B
:1035AC001A78E2B3BCF1000F20D044F2851300F17D
:1035BC00010EC0F6000362461C78A2421CD11EF814
:1035CC00012B0133002AF7D114E041F2E450B1F59C
:1035DC00C86FA8BF4FF4C861C2F20000B1F5487FB4
:1035EC00D8BF4FF44871A0F8F211BEE044F2851335
:1035FC00C0F600031A78C2B3BCF1000F1CD044F221
:10360C00023300F1010EC0F6000362461C78A242A0
:10361C0018D11EF8012B0133002AF7D110E0B1F1BB
:10362C00FF3F41F2E4514FF0FF30C2F20001C8BF3E
:10363C00012081F8F40198E044F20233C0F6000353
:10364C001A78BAB3BCF1000F1BD044F2BF1300F1CF
:10365C00010EC0F6000362461C78A24217D11EF878
:10366C00012B0133002AF7D10FE04629A8BF4621D0
:10367C0021EAE17041F2E451C2F2000181F8F50156
:10368C0073E044F2BF13C0F600031A78A2B3BCF186
:10369C00000F19D044F2161300F1010EC0F600030E
:1036AC0062461C78A24215D11EF8012B0133002A68
:1036BC00F7D10DE041F2E450C2F20000002918BF2E
:1036CC00012180F8F61150E044F21613C0F6000305
:1036DC001A7852B3BCF1000F1FD0421C44F21620D2
:1036EC00C0F6000003789C451DD112F801CB0130C7
:1036FC00BCF1000FF6D114E041F2E450B1F57A7F41
:10370C00A8BF4FF47A71C2F20000B1F5FA7FD8BFAE
:10371C004FF4FA71A0F8F81127E044F21620C0F625
:10372C000000007890B10020D0BD41F2E450B1F51A
:10373C00FA6FA8BF4FF4FA61C2F20000B1F57A7FBC
:10374C00D8BF4FF47A71A0F8FA110EE0B1F5967F5C
:10375C000846A8BF4FF49670002940F21C01C2F233
:10376C00000148BF4FF0FF3008800120D0BDD4D4F9
:10377C00B0B502AF41F2E45E44F249600521C2F2F9
:10378C00000EC5F24560C0F20021CEE900014FF6F3
:10379C00FF704FF4FE7C41F2210371460C7880EAF5
:1037AC000420002405B202464000002D48BF83EAE5
:1037BC004200072C04F10104F4D3BCF1010C01F11B
:1037CC000101EBD142F20C02AEF8FC01C4F2020290
:1037DC0072B6506800060BD540F22310C4F2675045
:1037EC0042F8080C48F6AB10CCF6EF5042F8080C37
:1037FC0034201060506847F6004CC0F6000C40F0C6
:10380C0002005060C2F808C0506843F64013CFF66F
:10381C00D27340F040005060184600BF1168C907D1
:10382C0005D00130FAD300206FF002042AE01068B2
:10383C00516810F0140021F00201516001D00020F9
:10384C0023E05168B0FA80F041F001014009516069
:10385C0000213EF811402CF811401C461568ED076C
:10386C0002D00134FAD30AE0146814F0140F06D114
:10387C000131B1F5807F6FF00104EAD102E0002044
:10388C006FF00104516821405160516841F0800192
:10389C00516062B600B1B0BD41F60C02EFF310817D
:1038AC0072B6C2F20002138843F40073138081F3E2
:1038BC001088B0BDF0B503AF4DF804BD40F6084616
:1038CC00C4F20106316889040CD4044641F2D85084
:1038DC00C2F20000008828B941F2D050C2F20000B8
:1038EC00007820B1002420465DF804BBF0BD002018
:1038FC00FFF7D2F840F22000C2F20000D0F800C06E
:10390C00207870B144F26722631CC0F600020146B5
:10391C001578A9420BD113F8011B01320029F7D1FC
:10392C0003E044F26722C0F60002117829B370B1AB
:10393C0043F6E872631CC0F6000201461578A942F2
:10394C000BD113F8011B01320029F7D103E043F628
:10395C00E872C0F600021178B9B3F8B144F26C0207
:10396C00631CC0F6000201461578A9421CD113F85D
:10397C00011B01320029F7D114E041F2E150C2F2EF
:10398C000000012441F61C0104700CF5FA60C2F22F
:10399C00000108604FF40060B060A4E744F26C02D0
:1039AC00C0F600021178D1B318B344F27912631C3B
:1039BC00C0F60002014600BF1578A9421FD113F8CA
:1039CC00011B01320029F7D117E041F2E150C2F29C
:1039DC0000000221017041F61C010CF13200C2F210
:1039EC00000108600A20042140F6B83200F04AF9C0
:1039FC00C0E044F27912C0F600021178A9B3F0B11C
:103A0C0043F6BA72631CC0F6000201461578A9424F
:103A1C001BD113F8011B01320029F7D113E041F23D
:103A2C00E150C2F200000321017041F61C010CF1BF
:103A3C003200C2F2000108600020012124E043F6AC
:103A4C00BA72C0F600021178D1B318B343F65F72A4
:103A5C00631CC0F6000201461578A94220D113F868
:103A6C00011B01320029F7D118E041F2E150C2F2FA
:103A7C0000000421017041F61C010CF13200C2F26D
:103A8C0000010860012003214FF47A72012400F038
:103A9C00F9F828E743F65F72C0F60002117879B1A5
:103AAC0010B344F23012631CC0F600021178884245
:103ABC007FF418AF13F8010B01320028F6D117E090
:103ACC00D6F8001489047FF50DAF48B343F6BA72EB
:103ADC00631CC0F60002117888422BD113F8010B3D
:103AEC0001320028F7D11FE044F23012C0F6000278
:103AFC00107800287FF4F6AE41F2E150C2F20000DB
:103B0C000721017041F61C010CF5FA60C2F20001AC
:103B1C00086041F61500C2F200001421017029E082
:103B2C0043F6BA72C0F6000211780620002908BFCD
:103B3C00052000E0062041F2E151C2F200010870BC
:103B4C0041F62000C2F200001421018041F624004D
:103B5C00C2F2000041F61C01C0F800C00CF5FA706E
:103B6C00C2F2000108604FF60840CFF6FF704FF428
:103B7C00807131500124B6E6F0B503AF4DF8048DD9
:103B8C0084B04CF6CD42804600260124CCF6CC42C3
:103B9C00A7F11B0CA1FB0230C00800EB8003A1EBCA
:103BAC004303254643F03004731CF6B20CF8064070
:103BBC006C1C092901461E46ECD818060AD0EAB23C
:103BCC00ACF10104A15C4046551EFEF7D9F8002D5E
:103BDC002A46F7D104B05DF8048BF0BDB0B502AF46
:103BEC000C46B1F1FF3F054604DC28462D21FEF7BB
:103BFC00C7F8644228462146BDE8B040FFF7BCBF79
:103C0C00F0B503AF2DE9000743F65C7A9046894680
:103C1C00044600215020C0F6000A00BF4E1C0AEBDF
:103C2C000105C1B22046FEF7ABF86878022E31468A
:103C3C00F4D199F8000048B109F10105C1B2204650
:103C4C00FEF79EF815F8010B0028F7D120462C2121
:103C5C00FEF796F820464146FFF7C0FF44F20318E2
:103C6C0000210D20C0F600084E1C08EB0105C1B266
:103C7C002046FEF785F86878022E3146F4D1BDE86F
:103C8C000007F0BDF0B503AF4DF8048D4FF0010CFB
:103C9C0040F610430CFA00F0C4F201031025EFF3C8
:103CAC00108872B6186041F2C453C4F20005EFF3E9
:103CBC00108072B6C2F200031B686C692E68F6079E
:103CCC001CBF6C6903F5803380F31088A0B21A44D2
:103CDC00104441F2F872C2F2000242F8210041F2A3
:103CEC00F470C2F2000002780CFA01F11143017079
:103CFC00FCF780FA88F310885DF8048BF0BDD4D4FF
:103D0C00B0F5FA5F02D840F29F702FE0C1097C2910
:103D1C000CD844F2AA520021C0F6000202EB410377
:103D2C005B88834205D201310829F7D140F2EB10B0
:103D3C001CE080B56F4644F2BC5CC0F6000C0CEB8A
:103D4C00410E3CF8113032F81110BEF80220401A26
:103D5C00D11A484344F6D351C1F2620180FB0101F0
:103D6C00881100EBD1701844BDE8804080B27047D8
:103D7C000B88834219D2A2F1010C31F81C3083421A
:103D8C0018D9022A11D3D0B502AFB1F802E086459A
:103D9C0013D200230133DCB204F1010C94451CD284
:103DAC0031F81CE08645F5D30BE000204FF0000CF9
:103DBC00002318E00020634615E000244FF0010CAE
:103DCC00002331F814104FF47A72401A5043AEEBC2
:103DDC000101B0FBF1F0000403E000204FF0000CF7
:103DEC000023BDE8D0404FEA0C2189B20843D9B278
:103DFC000843704780B56F4641F2E45CC2F2000C98
:103E0C009CF8F42141F6380EC2F2000E42439EF8A3
:103E1C00001052B20123012AB8BF0323194444F203
:103E2C00E65201F00301C0F6000212F821204023F3
:103E3C00002A40F610428EF8001008BF4FF48003A1
:103E4C00C4F2010213604FF40003022908BF80235F
:103E5C0013604FF08073012908BF4FF48073136017
:103E6C004FF00073032941F6180108BF4FF400739B
:103E7C001360C2F200010978012918BF80BD41F618
:103E8C003001C2F20001B1F90020BCF8EC31104451
:103E9C009842B8BF0346002848BF00230B8080BD62
:103EAC00F0B503AF2DE9000B44F289258846044692
:103EBC0054200126C0F60005C1B22046FDF760FF74
:103ECC00A85D0136062EF7D144F2A6090021442044
:103EDC00C0F600094D1C09EB0106C1B22046FDF7E6
:103EEC004FFF7078042D2946F4D120462C21FDF784
:103EFC0047FFA8F10100C0B2062806D844F20C61B5
:103F0C00C0F6000151F8201003E044F2BE01C0F6E7
:103F1C000001087840B14D1CC1B22046FDF730FFBE
:103F2C0015F8010B0028F7D144F2031800210D20DD
:103F3C00C0F600084E1C08EB0105C1B22046FDF787
:103F4C001FFF6878022E3146F4D1BDE8000BF0BD9E
:103F5C00502C004941435F434C4F5345004F4B2C71
:103F6C0056494B485233305F53544D33322C004535
:103F7C0052522C696E646578004552522C666C6105
:103F8C007368004F4B2C4941435F484F4D494E4796
:103F9C0000696E6A6563746F725F646561647469ED
:103FAC006D655F7573005341564500492C004941BE
:103FBC00435F4F50454E00302E392E302D43362D59
:103FCC0042542D4449414700747269676765725FBA
:103FDC007472696D5F74656E74687300494E4A45FE
:103FEC0043544F5200494E464F2C53544D33324696
:103FFC0031303343365436412C424152454D4554B1
:10400C00414C2C5553415254312C484330362C41A1
:10401C0043545541544F525F544553542C46554CC0
:10402C004C5F444941472C33362D312C31373030DD
:10403C002C424F53434830323830313538313137D8
:10404C002C445256383834332C56424730384800BA
:10405C00504152414D53004F4B2C544553542C005E
:10406C00434F494C310044454641554C5453005044
:10407C00494E4700462C006675656C5F7363616C36
:10408C00655F7065726D696C6C65007265765F6CEE
:10409C00696D69745F736F667400444F4E450045DB
:1040AC0052522C6261645F736574005354524541E3
:1040BC004D004E4F4E45004F4B004F4B2C5341562D
:1040CC004544004F4B2C44454641554C54535F528C
:1040DC00414D0054455354004552522C7365727631
:1040EC006963655F6C6F636B006961635F6D6178B9
:1040FC005F7374657073000D0A004552522C626137
:10410C00645F676574005345540077696465626148
:10411C006E645F6C616D6264615F6D61785F6D6927
:10412C006C6C69004F325F48454154455200424F18
:10413C004F5453544147452C554152545F524541BD
:10414C0044592C4853495F504C4C36340053544F0F
:10415C0050007470735F6D696E5F72617700726589
:10416C00765F6C696D69745F6861726400434F4976
:10417C004C3200464C415348006F325F68656174A5
:10418C0065725F647574795F70637400494E464F55
:10419C00004655454C006961635F686F745F7374CA
:1041AC00657073006961635F7461726765745F72D7
:1041BC00706D007769646562616E645F6C616D62DD
:1041CC0064615F6D696E5F6D696C6C690050415222
:1041DC00414D00454E44007470735F6D61785F72A1
:1041EC006177006961635F6372616E6B5F737465A5
:1041FC007073006961635F646972656374696F6E83
:10420C00006477656C6C5F75730066697865645FD4
:10421C0069676E5F74656E74687300424F4F542CFF
:10422C0056494B485233305F53544D33322C004D6A
:10423C00415053004552522C756E6B6E6F776E5F0A
:10424C00636F6D6D616E6400424F4F545354414720
:10425C00452C48575F52454144590050554D50002C
:10426C0049474E004F4B2C544553542C53544F50EC
:10427C0000434C4541524641554C54530054455310
:10428C00542C004745540053544154555300435249
:10429C0043004552522C756E6B6E6F776E5F70617A
:1042AC0072616D6574657200484F4D45494143001C
:1042BC000D0A4C00424F4F5453544147452C554125
:1042CC0052545F52454144592C485349385F46413A
:1042DC004C4C4241434B004552522C6C696E655F0D
:1042EC00746F6F5F6C6F6E67004552522C62616425
:1042FC005F74657374006F325F6D6F64650058078F
:10430C003606BE05EC047A03020302030203020321
:10431C0002030203020302038A0786060E068205C5
:10432C00880424041A040604FC03FC03E803DE03DB
:10433C00C003D007FE06860654061806DC05BE052B
:10434C008C057805640546051E05E2046608D00751
:10435C0076073A071C07EA06D606C206AE06A4067E
:10436C008606680636066A09E80898086608520840
:10437C00480848083E082A0816080208E407B2074D
:10438C005A0A000AC409B009B009B009C409C40921
:10439C00BA099C097E0960092409860B360B180B97
:1043AC000E0B220B4A0B680B7C0B680B360B180B95
:1043BC00FA0ABE0A760C440C300C260C4E0C800CFF
:1043CC00A80CB20CA80C760C580C440CFE0B5C0D13
:1043DC00340D200D2A0D520D700D8E0D7A0D520DCF
:1043EC00F80CE40CB20C6C0C320064008C00B400C1
:1043FC00DC000401180118010E01FA00F000DC00C9
:10440C00C800320064008C00B400E00008011C01FC
:10441C001C011201FE00F000DC00C8003200640038
:10442C008C00B400E6000E012201220118010401E7
:10443C00F000DC00C80032005A008200B400E60034
:10444C000E012201220118010401F000DC00C80059
:10445C0032005A008200AA00DC0004011801180185
:10446C000E01FA00E600D200BE00320050007800C7
:10447C00AA00D200FA000E010E010401F000DC00CB
:10448C00C800B400320050007800A000D000F80042
:10449C000C010C010201EE00DA00BC00A800320095
:1044AC0050007800A000C800F00004010401FA00DC
:1044BC00E600D200B400A000320050007800A0004A
:1044CC00C800F00004010401FA00E600D200B400B8
:1044DC00A000A00F38FF570F9CFFE50E00003D0E0B
:1044EC006400580DC800360C2C01E20A90017109C9
:1044FC00F401FE075802A006BC02670520035D0408
:10450C0084038003E803CE024C043F02B004CF01C5
:10451C00140576017805E60D38FFBE0C9CFF4D0B9B
:10452C000000AD0964000408C80075062C011A05CA
:10453C009001FB03F401170358026602BC02DE0172
:10454C002003760184032701E803EB004C04BC0034
:10455C00B004980014057C00780558028403B0045C
:10456C0040069808B80BD80E941188137C15701758
:10457C00581B401F0000140032006400C8005E018C
:10458C002602EE02E8039CFF0000C80090015802CE
:10459C00EE02AA054605B0044C040604E803401FCD
:1045AC0028231027F82AE02EC832B036983A803EDD
:1045BC009F071F06FD0440046C03D60289022B02E0
:1045CC00EB01401F1027E02EE835A438803EDC05B7
:1045DC00D8046004E803E803AC0301000000000009
:1045EC0001000001000000000001D4D40100000013
:1045FC0000000100020000000000020000000004A6
:10460C0067420008E83F00086C4000087941000848
:0C461C00BA3F00085F3F00083041000872
:10462800FF00F503C800C800D430C2010200F5033A
:104638000A00A406320040064006E803FFFF000017
:04000005080000F1FE
:00000001FF
